:020000040800F2
:1000000000000220C92A0008F1290008F32900088D
:10001000F5290008F7290008F92900080000000068
:10002000000000000000000000000000D11F0008D8
:10003000FB290008000000000120000865200008DE
:10004000192B0008192B0008192B0008192B000880
:10005000192B0008192B0008192B0008192B000870
:10006000192B0008192B0008192B0008192B000860
:10007000192B0008192B0008192B0008192B000850
:10008000192B0008192B0008192B0008192B000840
:10009000192B0008192B0008192B0008192B000830
:1000A000192B0008FD290008192B0008192B00083E
:1000B000192B0008192B0008192B0008192B000810
:1000C000192B0008192B0008192B0008192B000800
:1000D000192B0008192B0008192B0008192B0008F0
:1000E000192B0008192B0008192B0008192B0008E0
:1000F000192B0008192B0008192B0008192B0008D0
:10010000192B0008192B0008192B0008192B0008BF
:10011000192B0008192B0008192B0008192B0008AF
:10012000192B0008192B0008192B0008192B00089F
:10013000192B00080000000000000000192B000827
:10014000192B0008192B0008192B0008192B00087F
:10015000192B0008192B0008192B0008192B00086F
:10016000192B0008192B0008192B0008192B00085F
:10017000192B0008192B0008192B0008000000009B
:1001800000000000192B0008000000000000000023
:10019000192B00080000000000000000192B0008C7
:1001A000000000000000000000000000192B000803
:1001B000192B0008192B0008192B0008192B00080F
:0401C000192B0008EF
:1001D00010B5054C237833B9044B13B10448AFF381
:1001E00000800123237010BD70000020000000007B
:1001F0004839000808B5034B1BB103490348AFF366
:10020000008008BD0000000074000020483900088C
:1002100053B94AB9002908BF00281CBF4FF0FF316D
:100220004FF0FF3000F072B9ADF1080C6DE904CE6B
:1002300000F006F8DDF804E0DDE9022304B07047C1
:100240002DE9F047089E04468846002B4BD18A4290
:10025000154667D9B2FA82F24AB1C2F1200701FA13
:1002600002F320FA07F7954047EA030894404FEA63
:10027000154E230CB8FBFEF71FFA85FC0EFB178802
:1002800043EA084307FB0CF1994209D9EB1807F13F
:10029000FF3080F01B81994240F21881023F2B44CD
:1002A0005B1AA4B2B3FBFEF00EFB103344EA034426
:1002B00000FB0CFCA44509D92C1900F1FF3380F098
:1002C0000781A44540F2048102382C4440EA0740EB
:1002D000A4EB0C0400271EB1D4400023C6E9004360
:1002E0003946BDE8F0878B4209D9002E00F0EB803B
:1002F0000027C6E9000138463946BDE8F087B3FA61
:1003000083F7002F47D18B4202D3824200F2FA805A
:10031000841A61EB030301209846002EE0D0C6E961
:100320000048DDE702B9FFDEB2FA82F2002A40F0AF
:100330008F80491B4FEA154E1FFA85F80127B1FB44
:10034000FEFC230C0EFB1C1143EA014308FB0CF1DD
:10035000994207D9EB180CF1FF3002D2994200F212
:10036000CD808446591AA3B2B1FBFEF00EFB1014E7
:1003700043EA044408FB00F8A04507D92C1900F112
:10038000FF3302D2A04500F2B6801846A4EB080461
:1003900040EA0C409FE7C7F1200CBB4022FA0CFE5C
:1003A0004EEA030E01FA07F420FA0CF521FA0CF3D9
:1003B0004FEA1E482543B3FBF8F92C0C08FB193310
:1003C0001FFA8EFA44EA034309FB0AF49C4202FA3C
:1003D00007F200FA07F10BD91EEB030309F1FF3016
:1003E00080F087809C4240F28480A9F10209734426
:1003F0001B1BADB2B3FBF8F008FB103345EA034416
:1004000000FB0AFAA24508D91EEB040400F1FF33F1
:100410006BD2A24569D90238744440EA0940A0FB76
:100420000289A4EB0A044C45C2464B4654D351D032
:10043000002E69D0B1EB0A0564EB030404FA0CFC4E
:10044000FD40FC404CEA0505C6E90054002747E79B
:10045000C2F1200320FA03F7954001FA02F021FAD5
:1004600003F34FEA154E3843010CB3FBFEF71FFAB6
:1004700085F80EFB173341EA034107FB08F38B4273
:1004800004FA02F407D9691807F1FF3C2FD28B4216
:100490002DD9023F2944CB1A81B2B3FBFEF00EFBEB
:1004A000103341EA034100FB08F38B4207D9691876
:1004B00000F1FF3C17D28B4215D902382944C91AE2
:1004C00040EA07473BE73746304609E70746E7E695
:1004D0001846FBE64145ABD2B8EB020A69EB0E02C7
:1004E00001381346A4E76046E9E7184695E76746F2
:1004F000D1E781467CE702382C4447E7ACF1020C97
:100500002B442FE7384608E73746E9E6704700BF37
:1005100001F0FF01102A2BDB10F0070F08D010F8B4
:10052000013B013A8B422DD010F0070F42B3F6D1B8
:10053000F0B441EA012141EA014122F007047FF0D1
:1005400000070023F0E80256083C85EA010586EA28
:10055000010685FA47F5A3FA87F586FA47F6A5FA64
:1005600087F68EB9EED1F0BC01F0FF0102F0070270
:1005700032B110F8013B013A83EA010313B1F8D11B
:100580000020704701387047002D06BF35460338FC
:10059000073815F0010F07D1013015F4807F02BF35
:1005A000013015F4C03F0130F0BC0138704700BF86
:1005B00008B50B4B1A6842F400721A601A6842F4CC
:1005C00080621A601A6842F480721A60032000F098
:1005D0001BF8002002F0CEF902F0F8F8002008BD68
:1005E000003C0240034A1168034B1B780B44136024
:1005F000704700BFC801002000000020014B1868B0
:10060000704700BFC8010020074AD36823F4E063A5
:100610001B041B0C000200F4E060184340F0BF60B4
:1006200040F40030D060704700ED00E030B4174B6C
:10063000DB68C3F30223C3F10704042C28BF04249E
:100640001D1D062D18D9033B4FF0FF3505FA04F4A4
:1006500021EA0401994005FA03F322EA030319434E
:1006600000280BDB0901C9B200F1604000F56140D0
:1006700080F8001330BC70470023E5E700F00F005E
:100680000901C9B2024B1954F4E700BF00ED00E0C4
:1006900014ED00E0002807DB00F01F0240090123F1
:1006A0009340024A42F82030704700BF00E100E06A
:1006B00000230F2B00F2D180F0B482B039E0062283
:1006C00000E00022B2403A430234644E46F824204F
:1006D000634A1468EA4302EA04064F6817F4803F4D
:1006E00001D045EA04065E4C2660646802EA04060E
:1006F0004F6817F4003F01D045EA0406584C666085
:10070000A46802EA04064F6817F4801F01D045EA86
:100710000406534CA660E46822404E6816F4001F9D
:1007200001D045EA04024E4CE26001330F2B00F287
:10073000918001229A400C6804EA0205AA42F4D191
:100740004C68022C01D0122C10D1DE08083650F86B
:1007500026C003F00704A7000F24BC402CEA040CB9
:100760000C69BC4044EA0C0440F8264004685F0071
:100770000326BE40F64306EA040C4C6804F003046A
:10078000BC4044EA0C0404604C6804F1FF3CBCF13A
:10079000010F03D9112C01D0122C10D1846806EA64
:1007A000040CCC68BC4044EA0C048460446824EA2D
:1007B00002024C68C4F300149C4014434460C268B5
:1007C00016408A68BA403243C2604A6812F0805FBD
:1007D000ABD000220192234A546C44F48044546408
:1007E000526C02F480420192019A9C08A61C1B4A9A
:1007F00052F8267003F0030296000F22B24027EA57
:100800000207194A90423FF45CAF02F580629042C1
:1008100016D002F58062904214D002F580629042B8
:1008200012D002F58062904210D002F580629042B0
:100830000ED002F5806290423FF441AF072241E7BB
:1008400001223FE702223DE703223BE7042239E78A
:10085000052237E702B0F0BC70477047003801400E
:10086000003C0140003802400000024012B9090477
:100870008161704781617047002800F09D8070B5EC
:1008800004464F4B1B6803F00F038B4209D2CBB2D7
:100890004B4A1370136803F00F038B4201D0012001
:1008A00070BD236813F0020F17D013F0040F04D0AB
:1008B000444A936843F4E0539360236813F0080FAD
:1008C00004D0404A936843F4604393603D4A936880
:1008D00023F0F003A068034393600D46236813F0F0
:1008E000010F32D06368012B21D09A1E012A25D92D
:1008F000344A126812F0020F60D032498A6822F03E
:10090000030213438B60FFF779FE06462D4B9B686D
:1009100003F00C036268B3EB820F16D0FFF76EFE94
:10092000801B41F288339842F0D90320B8E7254A6A
:10093000126812F4003FE0D10120B1E7214A1268A9
:1009400012F0007FD9D10120AAE71D4B1B6803F0EC
:100950000F03AB4209D9EAB2194B1A701B6803F0B6
:100960000F03AB4201D001209AE7236813F0040F74
:1009700006D0144A936823F4E053E1680B43936074
:10098000236813F0080F07D00E4A936823F46043DE
:10099000216943EAC103936000F05EF8094B9B684C
:1009A000C3F30313084AD35CD840084B18600020F7
:1009B00001F0E0FF002073E70120704701206FE79E
:1009C000003C024000380240A83A0008080000201D
:1009D000014B1868704700BF0800002008B5FFF7FA
:1009E000F7FF044B9B68C3F38223034AD35CD840D0
:1009F00008BD00BF00380240B83A000808B5FFF74C
:100A0000E7FF044B9B68C3F34233034AD35CD840EF
:100A100008BD00BF00380240B83A00080F23036049
:100A20000B4B9A6802F0030242609A6802F0F002EF
:100A300082609A6802F4E052C2609B68DB0803F4AB
:100A4000E0530361034B1B6803F00F030B60704717
:100A500000380240003C02402DE9F04B5C4B9B68A3
:100A600003F00C03082B07D00C2B5BD0042B00F0F9
:100A7000AD805848BDE8F08B554B5A6802F03F02F4
:100A80005B6813F4800F2AD0514B5B68C3F3881363
:100A90001E4600275C010025E41A65EB0705A90145
:100AA00041EA9461A001001B61EB0501CB0043EA20
:100AB0005073C400A01943EB07014B0243EAD05323
:100AC0004402204619460023FFF7A2FB404B5B6817
:100AD000C3F3014301335B00B0FBF3F0CAE73C4BC7
:100AE0005B68C3F388131E4600275C010025E41AE7
:100AF00065EB0705A90141EA9461A001001B61EBC8
:100B00000501CB0043EA5073C400A01943EB070171
:100B10008B0243EA90538402204619460023FFF7D4
:100B200077FBD3E72A4B5A6802F03F025B6813F465
:100B3000800F28D0264B5B68C3F388131E4600271E
:100B40005C010025E41A65EB0705A90141EA9461FF
:100B5000A001001B61EB0501CB0043EA5073C40008
:100B6000A01943EB07014B0243EAD053440220464D
:100B700019460023FFF74CFB154B5B68C3F3027368
:100B8000B0FBF3F076E7124B5B68C3F388131E46A5
:100B900000275C010025E41A65EB0705A90141EA7D
:100BA0009461A001001B61EB0501CB0043EA507387
:100BB000C400A01943EB07018B0243EA905384025F
:100BC000204619460023FFF723FBD5E7024851E7EB
:100BD000003802400024F40000127A0070B582B0A0
:100BE0000446036813F0010F41D0A64B9B6803F045
:100BF0000C03042B32D0A34B9B6803F00C03082B8F
:100C000027D0A04B9B6803F00C030C2B59D06368D2
:100C1000B3F5803F5BD0B3F5A02F5ED0994B1A6837
:100C200022F480321A601A6822F480221A60636803
:100C3000002B5CD0FFF7E2FC0546924B1B6813F4D7
:100C4000003F14D1FFF7DAFC401B6428F5D90320DC
:100C50009DE18C4B5B6813F4800FD2D0894B1B68ED
:100C600013F4003F03D06368002B00F08D812368EC
:100C700013F0020F67D0834B9B6813F00C0F4AD020
:100C8000804B9B6803F00C03082B3FD07D4B9B6887
:100C900003F00C030C2B48D0E368002B74D07A4B84
:100CA00001221A60FFF7AAFC0546764B1B6813F079
:100CB000020F60D1FFF7A2FC401B0228F5D90320E8
:100CC00065E1704B5B6813F4800FA0D0C6E76D4AF6
:100CD000136843F480331360A9E76A4B1A6842F43F
:100CE00080221A601A6842F480321A609FE7FFF788
:100CF00085FC0546634B1B6813F4003FB7D0FFF734
:100D00007DFC401B6428F5D9032040E15D4B5B6806
:100D100013F4800FBAD15B4B1B6813F0020F0AD09B
:100D2000E368012B07D0012031E1564B5B6813F4D7
:100D3000800FB1D1EFE7534A136823F0F80321691C
:100D400043EAC1031360236813F0080F40D06369BE
:100D500063B34E4B01221A60FFF750FC0546494B26
:100D60005B6F13F0020F33D1FFF748FC401B0228E2
:100D7000F5D903200BE1434A136823F0F8032169F6
:100D800043EAC1031360DEE73F4B00221A60FFF71E
:100D900035FC05463B4B1B6813F0020FD3D0FFF721
:100DA0002DFC401B0228F5D90320F0E0374B002230
:100DB0001A60FFF723FC0546324B5B6F13F0020FFE
:100DC00006D0FFF71BFC401B0228F5D90320DEE00C
:100DD000236813F0040F79D02A4B1B6C13F0805F4B
:100DE00033D100230193274B1A6C42F080521A64CE
:100DF0001B6C03F080530193019B0125244B1B685E
:100E000013F4807F23D0A368012B34D0052B41D06D
:100E10001C4B1A6F22F001021A671A6F22F00402AB
:100E20001A67A368002B3FD0FFF7E8FB0646154B77
:100E30001B6F13F0020F48D1FFF7E0FB801B41F25C
:100E400088339842F3D90320A1E00025D6E7104A61
:100E5000136843F480731360FFF7D0FB06460C4B16
:100E60001B6813F4807FCED1FFF7C8FB801B0228DC
:100E7000F5D903208BE0034A136F43F00103136796
:100E8000CFE700BF0038024000004742800E4742D3
:100E900000700040404B1A6F42F004021A671A6F4C
:100EA00042F001021A67BCE7FFF7A8FB06463A4B7F
:100EB0001B6F13F0020F08D0FFF7A0FB801B41F25D
:100EC00088339842F3D9032061E0E5B9A369002B88
:100ED0005CD0314A926802F00C02082A59D0022BE9
:100EE00017D02E4B00221A60FFF788FB04462A4BCE
:100EF0001B6813F0007F45D0FFF780FB001B022822
:100F0000F5D9032043E0244A136C23F08053136483
:100F1000DCE7224B00221A60FFF770FB05461E4BF0
:100F20001B6813F0007F06D0FFF768FB401B022808
:100F3000F5D903202BE0E369226A1343626A43EA8E
:100F40008213A26A5208013A43EA0243E26A43EA80
:100F50000263226B43EA02730F4A53600F4B012274
:100F60001A60FFF74BFB04460B4B1B6813F0007F26
:100F700006D1FFF743FB001B0228F5D9032006E04A
:100F8000002004E0002002E0012000E0002002B088
:100F900070BD0120FBE700BF0038024060004742FF
:100FA000F8B505460F4616461C462B689B6837EA7F
:100FB00003030CBF01230023B34237D0B4F1FF3F3A
:100FC000F3D0FFF71BFB069BC01AA04201D2002CF6
:100FD000EBD12A68536823F0E00353606B68B3F5E4
:100FE000827F0BD0AB6AB3F5005F14D0012385F884
:100FF0005130002385F85030032018E0AB68B3F57A
:10100000004F02D0B3F5806FECD12A68136823F04B
:1010100040031360E6E72A68136823F40053136063
:101020002A68136843F400531360DFE70020F8BD1B
:1010300010B582B0044600920B4600228021FFF7D3
:10104000AFFF034610B9184602B010BD636D43F000
:10105000200363650323F6E710B582B004460B4610
:101060004168B1F5827F0AD000920022802120469B
:10107000FFF796FF034678B9184602B010BD8168A5
:10108000B1F5004F02D0B1F5806FEDD12068016855
:1010900021F040010160E7E7636D43F020036365E1
:1010A0000323E9E700283BD010B504460023836200
:1010B00090F85130002B2ED0022384F85130226852
:1010C000136823F0400313606368A2681343E26867
:1010D00013432269134362691343A26902F4007245
:1010E0001343E2691343226A1343A16A22680B4344
:1010F0001360638B03F00403616A22680B4353603F
:101100002268D36923F40063D36100206065012362
:1011100084F8513010BD80F8503001F079FBCBE7F6
:10112000012070472DE9F04182B090F85040012C29
:1011300000F0C3801D46174688460446012380F808
:101140005030FFF75BFA064694F85130DBB2012BC2
:1011500009D00220012384F85130002384F8503054
:1011600002B0BDE8F081B8F1000F00F09880002FC8
:1011700000F09780032384F8513000236365C4F89E
:101180003080A786E786A363A387E387636423642D
:10119000A368B3F5004F1CD023681A6812F0400F03
:1011A00003D11A6842F040021A60E368B3F5006F99
:1011B00015D063680BB1012F49D1226B23681278D7
:1011C0001A73236B01332363E38E013B9BB2E386E7
:1011D0003DE02268136843F480431360DCE76368F2
:1011E0000BB1012F15D1226B23681288DA60236BB3
:1011F00002332363E38E013B9BB2E38609E0FFF7F2
:10120000FDF9801BA84202D3B5F1FF3F4BD1002D61
:101210004BD0E38E9BB2002B2CD023689A6812F03F
:10122000020FECD0226B1288DA60236B0233236347
:10123000E38E013B9BB2E386EBE7FFF7DFF9801B10
:10124000A84202D3B5F1FF3F31D1002D31D0E38E5A
:101250009BB27BB123689A6812F0020FEDD0226B2B
:1012600012781A73236B01332363E38E013B9BB225
:10127000E386ECE7324629462046FFF7D9FE08B15F
:1012800020236365A36833B901932368DA68019268
:101290009B680193019B636D6BB900205AE70120A5
:1012A00058E7012056E7032054E7032052E70320C4
:1012B00050E703204EE701204CE7022050E72DE9DC
:1012C000F04383B0DDF8288090F85040012C00F006
:1012D0000B811D4617460E460446012380F8503008
:1012E000FFF78CF9814694F85100C0B26368012879
:1012F00015D0B3F5827F0AD00223012284F8512051
:10130000002284F85020184603B0BDE8F083A3689B
:10131000002B40F0DB80042801D00223EDE7002EF3
:1013200000F0D680002F00F0D580002D00F0D48092
:1013300094F85130DBB2042B02D0052384F85130ED
:1013400000236365A763E587A5872663E586A586F1
:101350002364636423681A6812F0400F03D11A688B
:1013600042F040021A60E368B3F5006F10D0636882
:101370000BB1012D0AD1226B236812781A73236BEB
:1013800001332363E38E013B9BB2E386012569E0D1
:1013900063680BB1012D0AD1226B23681288DA60D1
:1013A000236B02332363E38E013B9BB2E38601256B
:1013B0001BE023689A6812F0010F0DD0E28F92B201
:1013C00052B1DA68A36B1A80A36B0233A363E38F75
:1013D000013B9BB2E3870125FFF710F9A0EB090061
:1013E000404502D3B8F1FF3F78D1E38E9BB21BB9E1
:1013F000E38F9BB2002B52D023689A6812F0020F41
:10140000D7D0E28E92B2002AD3D0002DD1D0226B59
:101410001288DA60236B02332363E38E013B9BB2B5
:10142000E3860025C5E723689A6812F0010F0DD006
:10143000E28F92B252B1DA68A36B1A70A36B0133D8
:10144000A363E38F013B9BB2E3870125FFF7D6F847
:10145000A0EB0900404502D3B8F1FF3F40D1B8F1FD
:10146000000F3FD0E38E9BB213B9E38F9BB2B3B1B1
:1014700023689A6812F0020FD5D0E28E92B2002A49
:10148000D1D0002DCFD0226B12781A73236B013389
:101490002363E38E013B9BB2E3860025C3E74A4604
:1014A00041462046FFF7C4FD034618B1202363657B
:1014B000012322E7A268002A7FF41FAF019222686D
:1014C000D168019192680192019A16E7022314E70C
:1014D000012312E7012310E701230EE703230CE7A2
:1014E00003230AE7032308E702230CE72DE9F04171
:1014F00082B004460F4690461D464368B3F5827F8E
:1015000019D094F85030012B00F09F80012384F80B
:101510005030FFF773F8064694F85130DBB2012BD8
:1015200015D00220012384F85130002384F8503074
:1015300002B0BDE8F0818368002BE2D1042380F87B
:101540005130009513460A46FFF7B9FEF0E7002F29
:101550006DD0B8F1000F6CD0042384F85130002313
:101560006365A763A4F83C80A4F83E802363A38648
:10157000E38623646364A368B3F5004F0BD023684C
:101580001A6812F0400F03D11A6842F040021A6044
:10159000E36883B12CE02268136823F4804313606E
:1015A000EDE7FFF72BF8801BA84202D3B5F1FF3F10
:1015B00041D1002D41D0E38F9BB2002B2BD023686B
:1015C0009A6812F0010FECD0A26B1B7B1370A36B17
:1015D0000133A363E38F013B9BB2E387EBE7FFF7A4
:1015E0000DF8801BA84202D3B5F1FF3F27D145B3C8
:1015F000E38F9BB27BB123689A6812F0010FEED0A3
:10160000DA68A36B1A80A36B0233A363E38F013BF9
:101610009BB2E387ECE7324629462046FFF71CFDE4
:1016200008B120236365636D6BB900207AE7012060
:1016300078E7012076E7032074E7032072E70320B0
:1016400070E703206EE701206CE7022070E7704727
:101650000268D36843F00103D3600268936803F023
:101660000703062B03D0136843F001031360002027
:101670007047704770477047704710B5044603685D
:101680001A6912F0020F11D0DA6812F0020F0DD0B1
:101690006FF002021A610123037703689B6913F05C
:1016A000030F70D0FFF7E6FF0023237723681A6942
:1016B00012F0040F12D0DA6812F0040F0ED06FF09F
:1016C00004021A610223237723689B6913F4407F85
:1016D0005FD02046FFF7CEFF0023237723681A69E7
:1016E00012F0080F12D0DA6812F0080F0ED06FF067
:1016F00008021A61042323772368DB6913F0030FC0
:101700004ED02046FFF7B6FF0023237723681A69DF
:1017100012F0100F12D0DA6812F0100F0ED06FF026
:1017200010021A61082323772368DB6913F4407FD2
:101730003DD02046FFF79EFF0023237723681A69D8
:1017400012F0010F03D0DA6812F0010F36D12368CE
:101750001A6912F0800F03D0DA6812F0800F34D1CA
:1017600023681A6912F0400F03D0DA6812F0400FB4
:1017700032D123681A6912F0200F03D0DA6812F010
:10178000200F30D110BDFFF774FF2046FFF773FF25
:101790008AE72046FFF76DFF2046FFF76CFF9BE7C7
:1017A0002046FFF766FF2046FFF765FFACE72046BF
:1017B000FFF75FFF2046FFF75EFFBDE76FF0010216
:1017C0001A61204600F0F0FDC1E76FF080021A6157
:1017D000204600F08DF8C3E76FF040021A61204602
:1017E000FFF74AFFC5E76FF020021A61204600F0BC
:1017F0007EF8C7E70368304A904212D0B0F1804FBC
:101800000FD0A2F57C4290420BD002F5806290424C
:1018100007D002F58062904203D002F578429042F0
:1018200003D123F070034A681343234A90422AD01D
:10183000B0F1804F27D0A2F57C42904223D002F530
:10184000806290421FD002F5806290421BD002F568
:101850007842904217D002F57052904213D002F5B0
:10186000806290420FD002F5806290420BD0A2F5C8
:101870009832904207D002F58062904203D002F580
:101880008062904203D123F44073CA68134323F06B
:1018900080034A69134303608B68C3620B688362E9
:1018A000054B984203D003F58063984201D10B6940
:1018B000036301234361704700000140A8B110B5E4
:1018C000044690F83D305BB1022384F83D30211D81
:1018D0002068FFF78FFF012384F83D30002010BD02
:1018E00080F83C30FFF7B3FEEEE701207047704709
:1018F000704700002DE9F84304460268136923F499
:101900004053C1680B431361836802691343426902
:101910001343C2691A430168CB6823F4164323F0CA
:101920000C031343CB600268536923F4407381694D
:101930000B435361C369B3F5004F60D00368B84AE5
:10194000934200F0148102F58062934200F00F810F
:10195000FFF744F800EB800000EB80006568AD0005
:10196000B0FBF5F5AF4FA7FB05356D092E01FFF76D
:1019700035F800EB800000EB80006568AD00B0FB3F
:10198000F5F9FFF72BF800EB800000EB80006568AD
:10199000AD00B0FBF5F5A7FB05356D094FF0640808
:1019A00008FB15952D013235A7FB05356D0905F0AE
:1019B000F0053544FFF712F800EB800000EB8000E3
:1019C0006668B600B0FBF6F6FFF708F800EB80009B
:1019D00000EB800063689B00B0FBF3F0A7FB0030D6
:1019E000400908FB10684FEA081808F13208A7FB05
:1019F0000837C7F3431723682F449F600DE103683E
:101A0000874A93425BD002F58062934257D0FEF73B
:101A1000E5FF00EB800000EB800065686D00B0FB27
:101A2000F5F5804FA7FB05356D092E01FEF7D6FFB2
:101A300000EB800000EB800065686D00B0FBF5F9FD
:101A4000FEF7CCFF00EB800000EB800065686D00C6
:101A5000B0FBF5F5A7FB05356D094FF0640808FBF1
:101A60001595ED003235A7FB05356D096D0005F4C0
:101A7000F8753544FEF7B2FF00EB800000EB800004
:101A800066687600B0FBF6F6FEF7A8FF00EB800074
:101A900000EB800063685B00B0FBF3F3A7FB03235C
:101AA0005B0908FB13684FEAC80808F13208A7FB76
:101AB0000837C7F3421723682F449F60ADE0FEF755
:101AC0009DFF00EB800000EB800065686D00B0FBBF
:101AD000F5F5544FA7FB05356D092E01FEF78EFF76
:101AE00000EB800000EB800065686D00B0FBF5F94D
:101AF000FEF784FF00EB800000EB800065686D005E
:101B0000B0FBF5F5A7FB05356D094FF0640808FB40
:101B10001595ED003235A7FB05356D096D0005F40F
:101B2000F8753544FEF76AFF00EB800000EB80009B
:101B300066687600B0FBF6F6FEF760FF00EB80000B
:101B400000EB800063685B00B0FBF3F3A7FB0323AB
:101B50005B0908FB13684FEAC80808F13208A7FBC5
:101B60000837C7F3421723682F449F6055E0FEF7FC
:101B700045FF00EB800000EB80006568AD00B0FB26
:101B8000F5F5284FA7FB05356D092E01FEF736FF49
:101B900000EB800000EB80006568AD00B0FBF5F95C
:101BA000FEF72CFF00EB800000EB80006568AD00C5
:101BB000B0FBF5F5A7FB05356D094FF0640808FB90
:101BC00015952D013235A7FB05356D0905F0F0059A
:101BD0003544FEF713FF00EB800000EB80006668E1
:101BE000B600B0FBF6F6FEF709FF00EB800000EB55
:101BF000800063689B00B0FBF3F0A7FB0030400956
:101C000008FB10684FEA081808F13208A7FB0837EC
:101C1000C7F3431723682F449F60BDE8F88300BFD4
:101C2000001001401F85EB512DE9F04105460F469C
:101C300016469846069C2B681B6837EA03030CBFC0
:101C400001230023B3421DD1B4F1FF3FF3D02CB1E7
:101C5000FEF7D4FCA0EB0800A042ECD92A68D368B8
:101C600023F4D073D3602A68536923F001035361CE
:101C7000202385F8393085F83A30002385F838304C
:101C8000032000E00020BDE8F08158B310B5044601
:101C900090F839300BB3242384F839302268D368A4
:101CA00023F40053D3602046FFF724FE2268136913
:101CB00023F4904313612268536923F02A0353618C
:101CC0002268D36843F40053D3600020E0632023EC
:101CD00084F8393084F83A3010BD80F8383000F09C
:101CE000CFFDD8E7012070472DE9F04182B01E46B4
:101CF00090F83930DBB2202B55D104460D46904682
:101D0000002955D0002A55D090F83830012B53D0F7
:101D1000012380F838300023C363212380F8393051
:101D2000FEF76CFC0746A4F82480A4F8268010E097
:101D300000963B46002280212046FFF775FF0028D1
:101D40003CD12B882268C3F3080353602369C3B9CD
:101D50000235E38C9BB2B3B1E38C013B9BB2E384CD
:101D6000A368B3F5805FE3D000963B460022802154
:101D70002046FFF759FF18BB2A7823685A600135BF
:101D8000E7E70135E5E700963B4600224021204683
:101D9000FFF74AFF0346A8B9202284F83920002221
:101DA00084F8382000E00223184602B0BDE8F08134
:101DB0000123F9E70123F7E70223F5E70323F3E71C
:101DC0000323F1E70323EFE743684B609A688A60D7
:101DD0009A68516099600861036801330360704735
:101DE00003694268816891608268416851605A68FD
:101DF000824206D0002202611A68013A1A6018680D
:101E0000704782685A60F5E7074B9B6A1B6833B1DD
:101E1000054B9A6AD268D2685268DA627047024B00
:101E20004FF0FF32DA6270478C0000202DE9F0415C
:101E3000404BD3F81831002B6CD13E4BD3F81451E2
:101E40000135C3F81451CDB99B6A1B6843B14FF0FB
:101E5000500383F31188BFF36F8FBFF34F8FFEE7FB
:101E6000344B9A6AD3F8F8109962C3F8F820D3F883
:101E700020210132C3F82021FFF7C6FF2D4BDB6A7A
:101E8000AB423DD900242B4AD2F80031DB6A03EB88
:101E9000830399000A44136B012B42D9012440E0CB
:101EA0000124244B9B6A1B6863B3224B9B6ADB684B
:101EB000DE6873689D422AD306F104084046FFF7A6
:101EC0008FFFB36A1BB106F11800FFF789FFF36AB1
:101ED00001229A40174FD7F80C110A43C7F80C217A
:101EE00007F1300003EB83039A0041461044FFF7EB
:101EF0006BFFF26AD7F80031DB6A9A42D0D2D0E7A2
:101F00000024CEE70B4B4FF0FF32DA62BBE7094A01
:101F1000D362B8E7074AD2F824310133C2F824313A
:101F20000024044BD3F8283103B101242046BDE836
:101F3000F08100BF8C000020224BD3F8183123B170
:101F4000204B0122C3F8282170471E4A0023C2F803
:101F50002831D2F80C31B3FA83F3DBB2C3F11F039B
:101F600003EB830081000A44126B42B94FF0500327
:101F700083F31188BFF36F8FBFF34F8FFEE710B469
:101F8000104A9900CC18A0001044446B6468446364
:101F90003032194488000830024494420BD0094979
:101FA00003EB83039A000A44536BDB68C1F80031EA
:101FB0005DF8044B704761680248142202FB03027B
:101FC0005163ECE78C0000200000000000000000DE
:101FD000074B19680868B0E8F04F80F30988BFF331
:101FE0006F8F4FF0000080F311887047AFF30080CF
:101FF0008C01002000000000000000000000000034
:10200000EFF30980BFF36F8F154B1A681EF0100FA6
:1020100008BF20ED108A20E9F04F10602DE909007B
:102020004FF0500080F31188BFF34F8FBFF36F8FD5
:10203000FFF782FF4FF0000080F3118809BC196898
:102040000868B0E8F04F1EF0100F08BFB0EC108A1F
:1020500080F30988BFF36F8F704700BFAFF3008034
:102060008C01002008B54FF0500383F31188BFF3B3
:102070006F8FBFF34F8FFFF7D9FE18B1034B4FF0AF
:1020800080521A60002383F3118808BD04ED00E03C
:10209000F0B58DB000240794089409940A940B9429
:1020A0000094534B1A6B42F004021A631A6B02F04D
:1020B00004020092009A01941A6B42F080021A63A3
:1020C0001A6B02F080020192019A02941A6B42F09C
:1020D00001021A631A6B02F001020292029A03943F
:1020E0001A6B42F020021A631A6B02F0200203926C
:1020F000039A04941A6B42F002021A631A6B02F0FC
:1021000002020492049A05941A6B42F008021A63C0
:102110001A6B02F008020592059A06941A6B42F0B7
:1021200040021A631B6B03F040030693069B314F7A
:1021300022464FF481413846FEF798FB2E4D224649
:1021400040212846FEF792FB4FF4005307932B4B98
:102150000893099407A92A48FEF7AAFA4FF4805376
:1021600007930894099407A92648FEF7A1FA4FF4AB
:10217000814307930126089609940A9407A93846D3
:10218000FEF796FA4FF4404307930894099407A981
:102190001D48FEF78DFA40230793089609940A9488
:1021A00007A92846FEF784FA802307930894099428
:1021B00007A92846FEF77CFA4FF4E8530793022359
:1021C0000893099403230A930A230B93A5F5C0559A
:1021D00007A92846FEF76CFA4FF40073079308949A
:1021E000099407A92846FEF763FA0DB0F0BD00BFB9
:1021F00000380240000402400018024000001110A4
:102200000008024000140240000C024008B50C48CF
:102210000C4B03604FF48273436000238360C36000
:10222000036143614FF4007282611822C26103624C
:10223000436283620A23C362FEF734FF08BD00BF16
:10224000100200200030014008B50848084B036028
:102250004FF4E133436000238360C36003610C22C9
:1022600042618361C361FFF710FD08BDD00100200A
:102270000048004008B50848084B03604FF4E133BC
:10228000436000238360C36003610C224261836169
:10229000C361FFF7FAFC08BD68020020004400405B
:1022A00030B595B03422002107A800F061FC00246D
:1022B0000294039404940594069400941C4B1A6CA5
:1022C00042F080521A641B6C03F080530093009B11
:1022D0000194184B1A6842F440421A601B6803F4D8
:1022E00040430193019B012307934FF4A0230893DC
:1022F00002250D954FF480030E9304230F93A8231A
:102300001093119507231293139507A8FEF766FC07
:102310000F230293039504944FF4A05305934FF4B5
:1023200080530693052102A8FEF7A6FA15B030BD2A
:10233000003802400070004000B583B0FEF738F965
:10234000FFF7AEFFFFF7A4FEFFF760FFFFF77CFF8C
:10235000FFF790FF0F4800F013FC00F011FA022382
:1023600006220D490D4800F09DF9F52000F06CF9AA
:1023700001460B4800F004FC0A4B93E80300009070
:10238000ADF80410062269463F2000F0C1F800F0C5
:10239000C8F9F7E7C03A0008D00100201002002079
:1023A000D83A00086039000808B50268034B9A4221
:1023B00000D008BDFEF716F9FBE700BF00000140A2
:1023C000014B186059607047A802002070B50446A0
:1023D0000D46164600224FF480410F48FEF746FA9C
:1023E0004FF6FF73012221460C480068FEF79AFE63
:1023F000044648B945B14FF6FF73324629460748AF
:102400000068FEF78FFE044601224FF48041024827
:10241000FEF72CFA204670BD000C0240A8020020F6
:1024200000B583B002AB03F8010D00221146184637
:10243000FFF7CCFF03B05DF804FB000010B50022ED
:102440004FF480411148FEF711FAFEF7D7F8044621
:10245000FEF7D4F8001B0928FAD901224FF4804175
:102460000A48FEF703FAFEF7C9F80446FEF7C6F875
:10247000001B2728FAD93020FFF7D2FFFEF7BEF85D
:102480000446FEF7BBF8A042FBD010BD000C024092
:1024900000B583B08DF8070002AB03F8021D0122DE
:1024A00019460DF10700FFF791FF03B05DF804FB3B
:1024B00008B501460A20FFF7EBFF08BD08B510F18B
:1024C0001D0F14DB10F1130F16DB10F10E0F15DBCF
:1024D00010F1090F14DB002814DD052814DD07288E
:1024E00014DD0A2801DC072102E0C02100E0002100
:1024F0002220FFF7CDFF08BD0121F9E70221F7E710
:102500000321F5E70421F3E70521F1E70621EFE7D1
:1025100000B583B08DF80700012A04D9C3B243F097
:1025200040038DF807300DF10700FFF74FFF03B0B0
:102530005DF804FB08B5013805280ED8DFE800F087
:10254000030D0507090B084908E0084906E008499A
:1025500004E0084902E0084900E008492F22402031
:10256000FFF7D6FF08BD00BF68390008C83900086A
:10257000F8390008283A0008583A00089839000845
:1025800070B50138032812D8DFE800F00216070CF6
:10259000144C89251D260C2112E0134C6A25652652
:1025A00021210DE0114C3B253126232108E00E4C62
:1025B0006A256526212103E00D4C7125B0261021E6
:1025C0000D20FFF765FF31460E20FFF761FF29461A
:1025D0000F20FFF75DFF082221467E20FFF798FFBE
:1025E00070BD00BF883A0008983A0008A03A000879
:1025F000903A00082DE9F04180460E461746104CEF
:1026000000224FF480412046FEF730F90D4D4FF681
:10261000FF73012241462868FEF784FD4FF6FF73E1
:102620003A4631462868FEF761FF054601224FF41D
:1026300080412046FEF71AF92846BDE8F08100BF28
:10264000000C0240A802002000B585B060F07F00B9
:102650008DF8070001220DF10F010DF10700FFF7C2
:10266000C9FF9DF80F0005B05DF804FB10B5F1201F
:10267000FFF7EAFF04460146074800F081FA142CF0
:1026800004D0064800F07CFA002010BD044800F099
:1026900077FA0120F9E700BFE83A0008003B00089C
:1026A000F83A000870B516461D46FFF789FEFFF799
:1026B000C5FEFFF7DBFF034608B9184670BD3B2097
:1026C000FFF7AEFEFDF79AFF0446FDF797FF001BEC
:1026D0006328FAD93A20FFF7A3FEFDF78FFF0446DF
:1026E000FDF78CFF001B6328FAD93046FFF722FF65
:1026F0002846FFF745FF0020FFF7DAFE0020FFF72E
:10270000DDFE0123D9E708B53620FFF789FEFF205B
:1027100004E0F520FFF798FF00F01F000128F8D132
:1027200008BD08B5FFF7EFFF3520FFF779FEFF2062
:1027300002E0F520FFF788FF1628FAD1012008BD36
:1027400010B582B0044602A901F8040D0A23012243
:1027500003484068FFF7C8FA204602B010BD00BF2A
:10276000A802002070B51646002405E04D1C08782C
:10277000FFF7E6FF01342946B442F7DB304670BD6F
:1027800070B586B0002400940E4B1A6B42F0020222
:102790001A631B6B03F002030093009B80260196D3
:1027A00001230293039402230493074D01A92846B1
:1027B000FDF77EFF224631462846FEF757F806B061
:1027C00070BD00BF003802400004024000B583B075
:1027D000002200920D4B596C41F480415964596CB0
:1027E00001F48041009100990192196C41F08051EF
:1027F00019641B6C03F080530193019B0F216FF050
:102800000100FDF713FF03B05DF804FB0038024040
:1028100000B589B0002303930493059306930793AF
:102820000268154B9A4202D009B05DF804FB002102
:10283000019103F584335A6C42F480525A645A6C05
:1028400002F480520192019A02911A6B42F0010245
:102850001A631B6B03F001030293029BE0230393B3
:1028600002230493032306930523079303A9034834
:10287000FDF71EFFD8E700BF003001400000024016
:10288000F0B58BB000230593069307930893099343
:102890000368334A934204D0324A93423AD00BB091
:1028A000F0BD00220092304B196C41F400311964E4
:1028B000196C01F40031009100990192196B41F0FB
:1028C00001011963196B01F0010101910199029253
:1028D0001A6B42F008021A631B6B03F008030293A1
:1028E000029B0823059302270697012607960325D6
:1028F00008950724099405A91C48FDF7D9FE202353
:102900000593069707960895099405A91848FDF7B9
:10291000CFFEC4E700210391134B1A6C42F48022CE
:102920001A641A6C02F480220392039A04911A6BBF
:1029300042F008021A631B6B03F008030493049B24
:102940004FF4407305930223069301230793032357
:1029500008930723099305A90548FDF7A9FE9EE7FB
:10296000004400400048004000380240000002409F
:10297000000C024010B588B0002201461920FDF776
:1029800055FE1920FDF786FE00240194144B5A6C65
:1029900042F001025A645B6C03F001030193019B56
:1029A00002A903A8FEF73AF8FEF728F843000D48FD
:1029B000A0FB03239B0C013B0B480C4A026040F236
:1029C000E732C260436004618460FEF777FF10B1B4
:1029D000012008B010BD0448FEF73AFEF9E700BF39
:1029E0000038024083DE1B43B0020020000001409B
:1029F0007047FEE7FEE7FEE7FEE7704708B50248CE
:102A0000FEF73BFE08BD00BFB002002070B50D46CA
:102A10001646002404E0AFF300802870013401352D
:102A2000B442F8DB304670BD08B503460B4A126865
:102A300042B10A4A106803446A46934206D8074ADC
:102A4000136008BD054A06491160F2E700F066F818
:102A50000C2303604FF0FF30F3E700BFB801002004
:102A6000F80200204FF0FF3070474FF400534B60E6
:102A70000020704701207047002070470F49D1F8AF
:102A8000883043F47003C1F888300D4B1A6842F067
:102A900001021A60002098601A6822F0847222F401
:102AA00080321A60074A5A601A6822F480221A603B
:102AB000D8604FF000638B60704700BF00ED00E00E
:102AC0000038024010300024DFF834D0002103E049
:102AD0000C4B5B58435004310B480C4B42189A4244
:102AE000F6D30B4A02E0002342F8043B094B9A421A
:102AF000F9D3FFF7C3FF00F017F8FFF71DFC70478D
:102B000000000220B83B00080000002070000020F8
:102B100070000020F4020020FEE70000014B18685E
:102B2000704700BF0C00002070B50D4E0D4CA41B6B
:102B3000A4100025A54209D10B4E0C4C00F004FF57
:102B4000A41BA4100025A54205D170BD56F8253060
:102B500098470135EEE756F8253098470135F2E7FA
:102B6000B03B0008B03B0008B03B0008B43B000895
:102B700002440346934200D1704703F8011BF9E772
:102B80000FB40A4B13B51C6824B1A36913B92046CE
:102B900000F04EF805AB049AA1680193204600F0BE
:102BA00055F902B0BDE8104004B070470C00002099
:102BB000002310B50446C0E9003383608181436679
:102BC000C281C0E904338361194608225C30FFF7F3
:102BD000CFFF054B6362054BA362054BE362054BD8
:102BE0002462236310BD00BFA9330008CB33000863
:102BF0000334000827340008014900F085B800BFFD
:102C00000137000870B54A1E682555430E4605F188
:102C1000740100F097F8044640B10021C0E90016A5
:102C20000C30A06005F16802FFF7A2FF204670BDDE
:102C3000836910B5044633BBC0E912330365124BF8
:102C4000124A1B688262984204BF0123836100F02C
:102C50001FF86060204600F01BF8A060204600F0DE
:102C600017F80022E06004216068FFF7A1FF01224D
:102C70000921A068FFF79CFF02221221E068FFF7FC
:102C800097FF0123A36110BD103B0008F92B00083A
:102C9000F8B51B4B1E68B369074613B93046FFF7FA
:102CA000C7FF4836D6E90134013B03D5336833B159
:102CB0003668F7E7B4F90C506DB16834F4E70421D5
:102CC0003846FFF79FFF30600028F1D10C233B60AE
:102CD00004462046F8BD0B4B6566C4E90055A56067
:102CE000C4E90335C4E905550822294604F15C000E
:102CF000FFF73EFFC4E90D55C4E91255E9E700BFEF
:102D0000103B00080100FFFF2DE9F843804689468B
:102D100000F14804002614B93046BDE8F883D4E930
:102D20000175013F01D52468F5E7AB89012B07D96F
:102D3000B5F90E30013303D029464046C847064353
:102D40006835EEE770B5CD1C25F0030508350C2D70
:102D500038BF0C25002D064601DBA94203D90C2300
:102D60003360002070BD00F06BFD214A14682146DD
:102D700091B9204C23681BB9304600F005FB206058
:102D80002946304600F000FB431C24D10C2333605D
:102D9000304600F056FDE4E70B685B1B18D40B2BA4
:102DA0000FD90B60CD50CC18304600F04AFD04F12D
:102DB0000B00231D20F00700C31AD3D05A42E25063
:102DC000D0E78C424B6816BF636013600C46EBE79C
:102DD0000C464968CCE7C41C24F00304A04205D08B
:102DE000211A304600F0D0FA0130CFD02560DBE761
:102DF000C0010020C40100209368013B002B10B4E7
:102E0000936008DA9469A34201DB0A2903D15DF8D3
:102E1000044B00F00DBB1368581C10601970084675
:102E20005DF8044B7047F8B506460F461446D518B2
:102E3000AC4201D1002007E03A4614F8011B3046AD
:102E4000FFF7DAFF431CF3D1F8BD00002DE9F04F86
:102E50000C469DB017461D46064618B183690BB94E
:102E6000FFF7E6FE7C4B9C4258D17468A389180793
:102E70005ED52369002B5BD00023099320238DF8B6
:102E8000293030238DF82A3003954FF0010BB846D6
:102E9000454615F8013B0BB1252B54D1B8EB070A79
:102EA0000BD053463A4621463046FFF7BCFF01306F
:102EB00000F0C280099B5344099398F80030002B1E
:102EC00000F0BA8000234FF0FF32CDE905230493D0
:102ED00007938DF853301A93A846052218F8011B62
:102EE0005E48FDF715FB049B78BBD90644BF202242
:102EF0008DF853201A0744BF2B228DF853202A78CF
:102F00002A2A2AD0079AA84600200A25414611F805
:102F1000013B303B092B69D960B324E0504B9C4204
:102F200001D1B468A2E74F4B9C4208BFF4689DE70B
:102F30002146304600F0E0FA00289DD04FF0FF30E7
:102F40001DB0BDE8F08FA846A2E7444A801A0BFAEC
:102F500000F0184304904546BEE7039A111D12681D
:102F60000391002A01DB079204E0524243F002037E
:102F70000792049398F800302E2B0ED198F8013068
:102F80002A2B38D1039B1A1D1B680392002BB8BF54
:102F90004FF0FF3308F102080593334D98F8001005
:102FA00003222846FDF7B4FA40B14023401B03FA40
:102FB00000F0049B034308F10108049398F8001003
:102FC0002A488DF82810062208F10107FDF7A0FA1B
:102FD000002837D0264B1BBB039B073323F0070386
:102FE00008330393099B4B44099350E705FB0232D6
:102FF000012088468AE7002308F101080593194655
:103000000A25404610F8012B303A092A03D9002B33
:10301000C3D00591C1E705FB012101238046F0E7FC
:1030200003AB00932246134B04A93046AFF3008054
:10303000B0F1FF3F8146D5D1A3895B063FF57EAF56
:1030400009987DE703AB009322460A4B04A930465A
:1030500000F088F8ECE700BF343B0008743B000840
:10306000543B0008143B00087A3B00087E3B0008F4
:1030700000000000272E00082DE9F04791461F466A
:103080008A680B69DDF820809342B8BF1346C9F8FF
:10309000003091F8432006460C4612B10133C9F8BE
:1030A00000302368990642BFD9F800300233C9F8CE
:1030B0000030256815F0060507D104F1190AE36808
:1030C000D9F800209B1AAB4228DC94F843302268E0
:1030D000003318BF012392062DD404F14302394670
:1030E0003046C047013020D02368E568D9F8002079
:1030F00003F00603042B08BFAD1AA36822690CBFB6
:1031000025EAE57500259342C4BF9B1AED184FF0E0
:1031100000091A344D451AD1002008E00123524617
:1031200039463046C047013003D14FF0FF30BDE88B
:10313000F0870135C3E7E1185A1C302081F84300BD
:10314000224494F8451082F843100233C5E7012366
:10315000224639463046C0470130E6D009F1010920
:10316000D8E700002DE9F04301F1430C0C46097E3D
:1031700085B06E291746064698460C9A00F0B38033
:1031800022D8632936D00AD8002900F0B9805829FE
:1031900000F0838004F1420584F8421032E0642993
:1031A00001D06929F6D120681368050603F10401EE
:1031B0002AD51B681160002B03DA2D225B4284F8AC
:1031C00043206F480A2239E0732900F09D8008D817
:1031D0006F2920D07029DDD1236843F020032360BC
:1031E00003E0752917D07829D4D1782384F84530A5
:1031F000644855E01368191D1B68116004F142050D
:1032000084F8423001238CE01B68116010F0400FFD
:1032100018BF1BB2CFE713682568181D1060280679
:1032200001D51B6802E06806FBD51B8854486F294E
:1032300014BF0A220822002184F843106568A560A3
:10324000002DC0F29580216821F004012160002B3F
:103250003DD1002D40F08E806546082A0BD12368B1
:10326000DB0708D5236962689A42DEBF302305F880
:10327000013C05F1FF35ACEB05032361CDF800807F
:103280003B4603AA21463046FFF7F6FE01304DD1FA
:103290004FF0FF3005B0BDE8F083394884F84510A1
:1032A000136821681D1D1B6815600A060BD5CA0727
:1032B00044BF41F0200121601BB9226822F02002A6
:1032C00022601022B7E74D0648BF9BB2EFE7654684
:1032D000B3FBF2F102FB1133C35C05F8013D0B4671
:1032E0000029F5D1B9E7136825686169181D1060D8
:1032F00028061B6801D5196002E06A06FBD5198013
:10330000002323616546B9E71368191D11601D6824
:10331000626800212846FDF7FBF808B1401B606099
:1033200063682361002384F84330A7E723692A46B2
:1033300039463046C0470130AAD023689B0713D4D2
:10334000E068039B9842B8BF1846A3E701234A46AA
:1033500039463046C04701309AD00135E368039AB8
:103360009B1AAB42F2DCEBE7002504F11909F5E703
:10337000002BACD1037884F8423004F142056CE7AD
:10338000853B0008963B000838B5064C00230546EF
:1033900008462360FFF748FB431C02D1236803B1B2
:1033A0002B6038BDF002002010B50C46B1F90E10AC
:1033B00000F096FA0028ABBF636DA3891B1823F4B5
:1033C0008053ACBF6365A38110BD2DE9F0411F465A
:1033D0008B89DB0505460C46164605D502230022DF
:1033E000B1F90E1000F0B6F9A389B4F90E1023F468
:1033F0008053A38132463B462846BDE8F04100F0A9
:1034000069B810B50C46B1F90E1000F0A3F9431CD1
:10341000A38915BF606523F4805343F48053A381CF
:1034200018BFA38110BDB1F90E1000F0D3B8000091
:10343000F8B50E461446054618B183690BB9FFF777
:10344000F7FB214B9C422AD16C68A369A360A38936
:103450001A072ED5236963B323692068C01A6369EC
:10346000F6B28342374604DC2146284600F048F98C
:1034700028BBA368013BA36023685A1C22601E700E
:1034800063690130834204D0A389DB0719D50A2E72
:1034900017D12146284600F033F990B10FE00B4BCD
:1034A0009C4201D1AC68D0E7094B9C4208BFEC6854
:1034B000CBE72146284600F01FF80028CCD04FF07B
:1034C000FF373846F8BD00BF343B0008543B0008C6
:1034D000143B000838B5074C054608461146002243
:1034E00022601A46FFF73EF9431C02D1236803B15C
:1034F0002B6038BDF0020020324B70B51D680646C7
:103500000C4625B1AB6913B92846FFF791FB2E4B4A
:103510009C420FD16C68B4F90C309AB215072CD4C8
:10352000D00611D40922326043F04003A3814FF04A
:10353000FF303EE0254B9C4201D1AC68EBE7244BC9
:103540009C4208BFEC68E6E7510712D5616B41B1B8
:1035500004F14403994202D0304600F073F900238D
:103560006363A38923F02403A38100236360236999
:103570002360A38943F00803A38123694BB9A3897E
:1035800003F42073B3F5007F03D02146304600F0EA
:1035900017F9A28912F001030CD00023A36063691C
:1035A0005B42A361236953B9B4F90C3013F0800076
:1035B000BAD170BD920758BF6369A360F2E70020DB
:1035C000F7E700BF0C000020343B0008543B000824
:1035D000143B000838B5064C002305460846236016
:1035E000FFF740FA431C02D1236803B12B6038BDBA
:1035F000F00200208A892DE9F041054610070C46AB
:1036000058D44B68002B05DC0B6C002B02DC00202F
:10361000BDE8F081E66A002EF9D0002312F4805252
:103620002F68216A2B6032D0606DA3895A0705D5B7
:103630006368C01A636B0BB1236CC01A0023024687
:10364000E66A216A2846B047431CA38906D1296847
:103650001D2948D8294ACA40D60744D500226260AD
:10366000D9042269226004D5421C01D12B6803B918
:103670006065616B2F600029C9D004F14403994251
:1036800002D0284600F0DEF800206063C0E7012386
:103690002846B047411CC8D12B68002BC5D01D2B34
:1036A00001D0162B01D12F60B1E7A38943F040036D
:1036B000A381ADE70F69002FA9D093070E6808BF5B
:1036C0004B690F6018BF0023A6EB07088B60B8F1A9
:1036D000000F9CDD43463A46216AA66A2846B04759
:1036E000002806DCA38943F04003A3814FF0FF309C
:1036F0008EE70744A8EB0008E9E700BF010040207F
:1037000038B50B6905460C46DBB118B183690BB9B6
:10371000FFF78EFA0C4B9C4209D16C68B4F90C305F
:103720007BB121462846BDE83840FFF763BF074B11
:103730009C4201D1AC68F1E7054B9C4208BFEC68A4
:10374000ECE7002038BD00BF343B0008543B0008C4
:10375000143B000838B5074C0546084611460022C0
:1037600022601A46FFF788F9431C02D1236803B18F
:103770002B6038BDF002002070B50E46B1F90E1076
:10378000002996B014461D4607DA00232B60B38942
:103790001A0610D44FF480630EE06A4600F0B2F8C7
:1037A0000028F2DB019A02F47042A2F500535A425B
:1037B0005A412A60EEE740230020236016B070BD16
:1037C0008B8973B59D0706460C4607D504F1470360
:1037D000236023610123636102B070BD01AB6A46BF
:1037E000FFF7CAFF009905463046FFF7ABFA48B924
:1037F000B4F90C309A05EFD423F0030343F002032D
:10380000A381E3E70D4BB362A389206043F08003FB
:10381000A381009B6361019B20615BB1B4F90E1031
:10382000304600F081F828B1A38923F0030343F068
:103830000103A381A3891D43A581CDE7F92B0008CE
:103840007047704738B50546002945D051F8043C0B
:103850000C1F002BB8BFE418FFF7F2FF1F4A1368D4
:10386000104633B9636014602846BDE83840FFF75E
:10387000E8BFA3420CD921686218934204BF1A68BA
:103880005B68636004BF521822600460ECE7134673
:103890005A680AB1A242FAD919685818A0420BD145
:1038A00020680144581882421960DDD110685268BE
:1038B0005A6001441960D7E702D90C232B60D3E783
:1038C000206821188A4204BF11685268626004BFF0
:1038D000091821605C60C7E738BD00BFC001002047
:1038E00038B5074C054608461146002222601A46A4
:1038F000FFF78CF8431C02D1236803B12B6038BD5D
:10390000F002002038B5074C002305460846114652
:103910002360FFF7AAF8431C02D1236803B12B6090
:1039200038BD00BFF002002038B5064C0023054624
:1039300008462360FFF79EF8431C02D1236803B1B9
:103940002B6038BDF0020020F8B500BFF8BC08BC01
:103950009E467047F8B500BFF8BC08BC9E4670474D
:103960000707070707070000072E800757433E0E8B
:1039700045FF00080021656AF58313A0F815070CC0
:1039800018166C0340910226095617A90A00114126
:1039900000597F3F813F0B00072E800757433E0EA3
:1039A00045FF00060021656ACA8313A0F834070C9E
:1039B00018166C4340910226095617A90A001141B6
:1039C00000597F3F813F0B00072E800757433E0E73
:1039D00045FF00080021656A5BF813A0F847070C53
:1039E000181D1CC700B2022609B617EA0A001141C9
:1039F00000597F3F813F0B00072E800757433E0E43
:103A000045FF000B0021656A2D3B73A0F800070CF1
:103A1000181D1CC700B2022609B617EA0A00114198
:103A200000597F3F813F0B00072E800757433E0E12
:103A300045FF000C0021656A0E3B73A0F800070CDF
:103A4000181D1CC740B2022609B617EA0A00194120
:103A500000597F3F813F0B00062E06475743FF0466
:103A6000050000060021656A87833B22F8150730B0
:103A700018146C070092876BFB5617E92A001F4148
:103A800000597F3F81350900171D26695186CCC337
:103A90006C1C063A5185C8C003171D265086CDC040
:103AA0000B1B6D675085C9C10000000000000000BD
:103AB00001020304060708090000000001020304D4
:103AC00023232323232323232323232323232323C6
:103AD00023232323230A0D00726573756C7420253C
:103AE000233032780D0A000056455253494F4E3D5F
:103AF0003D25233032780000204F4B0A0D00000096
:103B00004E6F206C75636B203A280A0D0000000090
:103B10001000002000000000000000000000000075
:103B20000000000000000000000000000000000095
:103B30000000000000000000000000000000000085
:103B40000000000000000000000000000000000075
:103B50000000000000000000000000000000000065
:103B60000000000000000000000000000000000055
:103B700000000000232D302B2000686C4C0065668F
:103B800067454647003031323334353637383941AE
:103B900042434445460030313233343536373839C4
:083BA0006162636465660000C8
:083BA80098C6FF7F0100000038
:043BB000F501000813
:043BB400D101000833
:103BB80001000000100000000024F40010000020A4
:103BC80000000000343B0008543B0008143B000888
:103BD80000000000000000000000000000000000DD
:103BE80000000000000000000000000000000000CD
:103BF80000000000000000000000000000000000BD
:103C080000000000000000000000000000000000AC
:103C1800000000000000000000000000000000009C
:0400000508002AC9FC
:00000001FF
