:020000040800F2
:1000000000000220AD300008CD2F0008CF2F0008DF
:10001000D12F0008D32F0008D52F000800000000C2
:10002000000000000000000000000000D72F0008C2
:10003000D92F000800000000DB2F0008DD2F00088A
:10004000FD300008FD300008FD300008FD300008DC
:10005000FD300008FD300008E52F0008FD300008E5
:10006000FD300008FD300008FD300008FD300008BC
:10007000FD300008FD300008FD300008FD300008AC
:10008000FD300008FD300008FD300008FD3000089C
:10009000FD300008FD300008FD300008FD3000088C
:1000A000FD300008FD300008FD300008FD3000087C
:1000B000FD300008FD300008FD300008FD3000086C
:1000C000FD300008FD300008FD300008FD3000085C
:1000D000FD300008FD300008FD300008FD3000084C
:1000E000FD300008FD300008FD300008FD3000083C
:1000F000FD300008FD300008FD300008FD3000082C
:10010000FD300008FD300008FD300008FD3000081B
:10011000FD300008FD300008FD300008FD3000080B
:10012000FD300008FD300008FD300008FD300008FB
:10013000FD3000080000000000000000FD30000855
:10014000FD300008FD300008FD300008FD300008DB
:10015000FD300008FD300008FD300008FD300008CB
:10016000FD300008FD300008FD300008FD300008BB
:10017000FD300008FD300008FD30000800000000E0
:1001800000000000FD30000800000000000000003A
:10019000FD3000080000000000000000FD300008F5
:1001A000000000000000000000000000FD3000081A
:1001B000FD300008FD300008FD300008FD3000086B
:0401C000FD30000806
:1001D00010B5054C237833B9044B13B10448AFF381
:1001E00000800123237010BD740000200000000077
:1001F0002C3F000808B5034B1BB103490348AFF37C
:10020000008008BD00000000780000202C3F00089E
:1002100081F0004102E000BF83F0004330B54FEAB7
:1002200041044FEA430594EA050F08BF90EA020F24
:100230001FBF54EA000C55EA020C7FEA645C7FEAB7
:10024000655C00F0E2804FEA5454D4EB5555B8BFDA
:100250006D420CDD2C4480EA020281EA030382EA4B
:10026000000083EA010180EA020281EA0303362DDD
:1002700088BF30BD11F0004F4FEA01314FF4801CB0
:100280004CEA113102D0404261EB410113F0004FC2
:100290004FEA03334CEA133302D0524263EB430379
:1002A00094EA050F00F0A780A4F10104D5F1200E17
:1002B0000DDB02FA0EFC22FA05F2801841F1000172
:1002C00003FA0EF2801843FA05F359410EE0A5F146
:1002D00020050EF1200E012A03FA0EFC28BF4CF077
:1002E000020C43FA05F3C01851EBE37101F000452D
:1002F00007D54FF0000EDCF1000C7EEB00006EEB3A
:100300000101B1F5801F1BD3B1F5001F0CD34908C3
:100310005FEA30004FEA3C0C04F101044FEA44521A
:1003200012F5800F80F09A80BCF1004F08BF5FEAA1
:10033000500C50F1000041EB045141EA050130BD81
:100340005FEA4C0C404141EB010111F4801FA4F124
:100350000104E9D191F0000F04BF01460020B1FA79
:1003600081F308BF2033A3F10B03B3F120020CDAB1
:100370000C3208DD02F1140CC2F10C0201FA0CF08F
:1003800021FA02F10CE002F11402D8BFC2F1200CF4
:1003900001FA02F120FA0CFCDCBF41EA0C019040AA
:1003A000E41AA2BF01EB0451294330BD6FEA0404F3
:1003B0001F3C1CDA0C340EDC04F11404C4F12002DE
:1003C00020FA04F001FA02F340EA030021FA04F3F0
:1003D00045EA030130BDC4F10C04C4F1200220FA47
:1003E00002F001FA04F340EA0300294630BD21FA85
:1003F00004F0294630BD94F0000F83F4801306BF4B
:1004000081F480110134013D4EE77FEA645C18BF3E
:100410007FEA655C29D094EA050F08BF90EA020FD5
:1004200005D054EA000C04BF1946104630BD91EACD
:10043000030F1EBF0021002030BD5FEA545C05D1D0
:100440004000494128BF41F0004130BD14F580040F
:100450003CBF01F5801130BD01F0004545F0FE4183
:1004600041F470014FF0000030BD7FEA645C1ABFB8
:10047000194610467FEA655C1CBF0B46024650EAEF
:10048000013406BF52EA033591EA030F41F400211B
:1004900030BD00BF90F0000F04BF0021704730B5A1
:1004A0004FF4806404F132044FF000054FF0000176
:1004B00050E700BF90F0000F04BF0021704730B537
:1004C0004FF4806404F1320410F0004548BF40420C
:1004D0004FF000013EE700BF42004FEAE2014FEA61
:1004E00031014FEA02701FBF12F07F4393F07F4F3C
:1004F00081F06051704732F07F4208BF704793F03F
:100500007F4F04BF41F40021704730B54FF4607451
:1005100001F0004521F000411CE700BF50EA010254
:1005200008BF704730B54FF000050AE050EA0102FD
:1005300008BF704730B511F0004502D5404261EB6D
:1005400041014FF4806404F132045FEA915C3FF4AE
:10055000D8AE4FF003025FEADC0C18BF03325FEA4B
:10056000DC0C18BF033202EBDC02C2F1200300FAFC
:1005700003FC20FA02F001FA03FE40EA0E0021FA21
:1005800002F11444BDE600BF70B54FF0FF0C4CF40F
:10059000E06C1CEA11541DBF1CEA135594EA0C0FC1
:1005A00095EA0C0F00F0DEF82C4481EA030621EAFC
:1005B0004C5123EA4C5350EA013518BF52EA033537
:1005C00041F4801143F4801338D0A0FB02CE4FF0E9
:1005D0000005E1FB02E506F00042E0FB03E54FF019
:1005E0000006E1FB03569CF0000F18BF4EF0010E11
:1005F000A4F1FF04B6F5007F64F5407404D25FEA0D
:100600004E0E6D4146EB060642EAC62141EA5551BF
:100610004FEAC52040EA5E504FEACE2EB4F1FD0C01
:1006200088BFBCF5E06F1ED8BEF1004F08BF5FEA7F
:10063000500E50F1000041EB045170BD06F0004631
:1006400046EA010140EA020081EA0301B4EB5C04DE
:10065000C2BFD4EB0C0541EA045170BD41F48011D6
:100660004FF0000E013C00F3AB8014F1360FDEBFFB
:10067000002001F0004170BDC4F10004203C35DAD7
:100680000C341BDC04F11404C4F1200500FA05F35A
:1006900020FA04F001FA05F240EA020001F00042FB
:1006A00021F0004110EBD37021FA04F642EB060171
:1006B0005EEA430E08BF20EAD37070BDC4F10C049B
:1006C000C4F1200500FA04F320FA05F001FA04F25F
:1006D00040EA020001F0004110EBD37041F100014B
:1006E0005EEA430E08BF20EAD37070BDC4F1200556
:1006F00000FA05F24EEA020E20FA04F301FA05F2BE
:1007000043EA020321FA04F001F0004121FA04F265
:1007100020EA020000EBD3705EEA430E08BF20EA35
:10072000D37070BD94F0000F0FD101F0004640006F
:1007300041EB010111F4801F08BF013CF7D041EAF1
:10074000060195F0000F18BF704703F000465200F5
:1007500043EB030313F4801F08BF013DF7D043EAC6
:100760000603704794EA0C0F0CEA135518BF95EA7C
:100770000C0F0CD050EA410618BF52EA4306D1D103
:1007800081EA030101F000414FF0000070BD50EA22
:10079000410606BF1046194652EA430619D094EAAC
:1007A0000C0F02D150EA013613D195EA0C0F05D196
:1007B00052EA03361CBF104619460AD181EA0301EA
:1007C00001F0004141F0FE4141F470014FF00000A2
:1007D00070BD41F0FE4141F4780170BD70B54FF03D
:1007E000FF0C4CF4E06C1CEA11541DBF1CEA1355BD
:1007F00094EA0C0F95EA0C0F00F0A7F8A4EB05049F
:1008000081EA030E52EA03354FEA013100F0888095
:100810004FEA03334FF0805545EA131343EA12635E
:100820004FEA022245EA111545EA10654FEA002613
:100830000EF000419D4208BF964244F1FD0404F5CC
:10084000407402D25B084FEA3202B61A65EB030528
:100850005B084FEA32024FF480104FF4002CB6EBE5
:10086000020E75EB030E22BFB61A754640EA0C0065
:100870005B084FEA3202B6EB020E75EB030E22BFA5
:10088000B61A754640EA5C005B084FEA3202B6EBE6
:10089000020E75EB030E22BFB61A754640EA9C00A5
:1008A0005B084FEA3202B6EB020E75EB030E22BF75
:1008B000B61A754640EADC0055EA060E18D04FEA33
:1008C000051545EA16754FEA06164FEAC30343EAD3
:1008D00052734FEAC2025FEA1C1CC0D111F4801FA0
:1008E0000BD141EA00014FF000004FF0004CB6E799
:1008F00011F4801F04BF01430020B4F1FD0C88BF38
:10090000BCF5E06F3FF6AFAEB5EB030C04BFB6EB42
:10091000020C5FEA500C50F1000041EB045170BD35
:100920000EF0004E4EEA113114EB5C04C2BFD4EB62
:100930000C0541EA045170BD41F480114FF0000EE6
:10094000013C90E645EA060E8DE60CEA135594EA62
:100950000C0F08BF95EA0C0F3FF43BAF94EA0C0F65
:100960000AD150EA01347FF434AF95EA0C0F7FF4DA
:1009700025AF104619462CE795EA0C0F06D152EA2E
:1009800003353FF4FDAE1046194622E750EA410612
:1009900018BF52EA43067FF4C5AE50EA41047FF423
:1009A0000DAF52EA43057FF4EBAE12E74FEA410286
:1009B000B2F1E04324BFB3F5001CDCF1FE5C0DD9BD
:1009C00001F0004C4FEAC0024CEA5070B2F1004F07
:1009D00040EB830008BF20F00100704711F0804F0A
:1009E00021D113F13872BCBF01F00040704741F4CF
:1009F00080114FEA5252C2F11802C2F1200C10FAD3
:100A00000CF320FA02F018BF40F001004FEAC123B6
:100A10004FEAD32303FA0CFC40EA0C0023FA02F35A
:100A20004FEA4303CCE77FEA625307D150EA013330
:100A30001EBF4FF0FE4040F44000704701F0004000
:100A400040F0FE4040F40000704700BF53B94AB97F
:100A5000002908BF00281CBF4FF0FF314FF0FF30C6
:100A600000F072B9ADF1080C6DE904CE00F006F8A3
:100A7000DDF804E0DDE9022304B070472DE9F0471A
:100A8000089E04468846002B4BD18A42154667D9FA
:100A9000B2FA82F24AB1C2F1200701FA02F320FA57
:100AA00007F7954047EA030894404FEA154E230C98
:100AB000B8FBFEF71FFA85FC0EFB178843EA0843D4
:100AC00007FB0CF1994209D9EB1807F1FF3080F0D0
:100AD0001B81994240F21881023F2B445B1AA4B259
:100AE000B3FBFEF00EFB103344EA034400FB0CFCA6
:100AF000A44509D92C1900F1FF3380F00781A445E2
:100B000040F2048102382C4440EA0740A4EB0C0474
:100B100000271EB1D4400023C6E900433946BDE892
:100B2000F0878B4209D9002E00F0EB800027C6E940
:100B3000000138463946BDE8F087B3FA83F7002F45
:100B400047D18B4202D3824200F2FA80841A61EBD1
:100B5000030301209846002EE0D0C6E90048DDE7F7
:100B600002B9FFDEB2FA82F2002A40F08F80491B00
:100B70004FEA154E1FFA85F80127B1FBFEFC230C46
:100B80000EFB1C1143EA014308FB0CF1994207D903
:100B9000EB180CF1FF3002D2994200F2CD8084466E
:100BA000591AA3B2B1FBFEF00EFB101443EA044441
:100BB00008FB00F8A04507D92C1900F1FF3302D239
:100BC000A04500F2B6801846A4EB080440EA0C40A9
:100BD0009FE7C7F1200CBB4022FA0CFE4EEA030E41
:100BE00001FA07F420FA0CF521FA0CF34FEA1E483B
:100BF0002543B3FBF8F92C0C08FB19331FFA8EFAC6
:100C000044EA034309FB0AF49C4202FA07F200FAA1
:100C100007F10BD91EEB030309F1FF3080F0878049
:100C20009C4240F28480A9F1020973441B1BADB2BF
:100C3000B3FBF8F008FB103345EA034400FB0AFA63
:100C4000A24508D91EEB040400F1FF336BD2A24584
:100C500069D90238744440EA0940A0FB0289A4EB38
:100C60000A044C45C2464B4654D351D0002E69D09D
:100C7000B1EB0A0564EB030404FA0CFCFD40FC40F4
:100C80004CEA0505C6E90054002747E7C2F12003F6
:100C900020FA03F7954001FA02F021FA03F34FEA34
:100CA000154E3843010CB3FBFEF71FFA85F80EFB17
:100CB000173341EA034107FB08F38B4204FA02F4BD
:100CC00007D9691807F1FF3C2FD28B422DD9023F7B
:100CD0002944CB1A81B2B3FBFEF00EFB103341EA7C
:100CE000034100FB08F38B4207D9691800F1FF3C70
:100CF00017D28B4215D902382944C91A40EA07474E
:100D00003BE73746304609E70746E7E61846FBE685
:100D10004145ABD2B8EB020A69EB0E02013813462B
:100D2000A4E76046E9E7184695E76746D1E78146BC
:100D30007CE702382C4447E7ACF1020C2B442FE748
:100D4000384608E73746E9E6704700BF0000000074
:100D500001F0FF01102A2BDB10F0070F08D010F86C
:100D6000013B013A8B422DD010F0070F42B3F6D170
:100D7000F0B441EA012141EA014122F007047FF089
:100D800000070023F0E80256083C85EA010586EAE0
:100D9000010685FA47F5A3FA87F586FA47F6A5FA1C
:100DA00087F68EB9EED1F0BC01F0FF0102F0070228
:100DB00032B110F8013B013A83EA010313B1F8D1D3
:100DC0000020704701387047002D06BF35460338B4
:100DD000073815F0010F07D1013015F4807F02BFED
:100DE000013015F4C03F0130F0BC0138704700BF3E
:100DF00010B504460E4B18784FF47A73B3FBF0F33A
:100E00000C4A1068B0FBF3F000F0A6F868B90F2C9C
:100E100001D901200AE0002221464FF0FF3000F006
:100E200059F8034B5C60002000E0012010BD00BFBA
:100E3000000000200C00002008B5094B1A6842F49D
:100E400000721A601A6842F480621A60032000F08F
:100E50002FF80020FFF7CCFF02F028F8002008BD93
:100E6000003C0240034A1168034B1B780B4413609B
:100E7000704700BFD400002000000020014B18681C
:100E8000704700BFD400002038B50446FFF7F6FFD6
:100E90000546B4F1FF3F02D0044B1B781C44FFF71A
:100EA000EDFF401BA042FAD338BD00BF0000002078
:100EB000074AD36823F4E0631B041B0C000200F410
:100EC000E060184340F0BF6040F40030D0607047ED
:100ED00000ED00E030B4174BDB68C3F30223C3F12D
:100EE0000704042C28BF04241D1D062D18D9033B1C
:100EF0004FF0FF3505FA04F421EA0401994005FAA0
:100F000003F322EA0303194300280BDB0901C9B2EA
:100F100000F1604000F5614080F8001330BC70477C
:100F20000023E5E700F00F000901C9B2024B195494
:100F3000F4E700BF00ED00E014ED00E0002807DB5F
:100F400000F01F02400901239340024A42F820307A
:100F5000704700BF00E100E00138B0F1807F0AD2A5
:100F6000064B5860064AF02182F823100020986052
:100F700007221A6070470120704700BF10E000E0B0
:100F800000ED00E000230F2B00F2D180F0B482B01E
:100F900039E0062200E00022B2403A430234644EB7
:100FA00046F82420634A1468EA4302EA04064F68BC
:100FB00017F4803F01D045EA04065E4C2660646861
:100FC00002EA04064F6817F4003F01D045EA040620
:100FD000584C6660A46802EA04064F6817F4801F44
:100FE00001D045EA0406534CA660E46822404E68EE
:100FF00016F4001F01D045EA04024E4CE2600133B2
:101000000F2B00F2918001229A400C6804EA02053D
:10101000AA42F4D14C68022C01D0122C10D1DE0867
:10102000083650F826C003F00704A7000F24BC4080
:101030002CEA040C0C69BC4044EA0C0440F826403D
:1010400004685F000326BE40F64306EA040C4C68C1
:1010500004F00304BC4044EA0C0404604C6804F14E
:10106000FF3CBCF1010F03D9112C01D0122C10D17F
:10107000846806EA040CCC68BC4044EA0C04846032
:10108000446824EA02024C68C4F300149C401443F0
:101090004460C26816408A68BA403243C2604A68F7
:1010A00012F0805FABD000220192234A546C44F4CA
:1010B00080445464526C02F480420192019A9C086C
:1010C000A61C1B4A52F8267003F0030296000F225A
:1010D000B24027EA0207194A90423FF45CAF02F59A
:1010E0008062904216D002F58062904214D002F5E0
:1010F0008062904212D002F58062904210D002F5D8
:10110000806290420ED002F5806290423FF441AF7F
:10111000072241E701223FE702223DE703223BE7A6
:10112000042239E7052237E702B0F0BC7047704768
:1011300000380140003C01400038024000000240FD
:1011400012B90904816170478161704708B5054B88
:101150005B69034200D108BD024B586101F072FE89
:10116000F9E700BF003C0140002800F09D8070B509
:1011700004464F4B1B6803F00F038B4209D2CBB2DE
:101180004B4A1370136803F00F038B4201D0012008
:1011900070BD236813F0020F17D013F0040F04D0B2
:1011A000444A936843F4E0539360236813F0080FB4
:1011B00004D0404A936843F4604393603D4A936887
:1011C00023F0F003A068034393600D46236813F0F7
:1011D000010F32D06368012B21D09A1E012A25D934
:1011E000344A126812F0020F60D032498A6822F045
:1011F000030213438B60FFF741FE06462D4B9B68AD
:1012000003F00C036268B3EB820F16D0FFF736FED3
:10121000801B41F288339842F0D90320B8E7254A71
:10122000126812F4003FE0D10120B1E7214A1268B0
:1012300012F0007FD9D10120AAE71D4B1B6803F0F3
:101240000F03AB4209D9EAB2194B1A701B6803F0BD
:101250000F03AB4201D001209AE7236813F0040F7B
:1012600006D0144A936823F4E053E1680B4393607B
:10127000236813F0080F07D00E4A936823F46043E5
:10128000216943EAC103936000F040F8094B9B6871
:10129000C3F30313084AD35CD840084B18600020FE
:1012A000FFF7A6FD002073E70120704701206FE7DC
:1012B000003C024000380240844000080C0000203E
:1012C000014B1868704700BF0C00002008B5FFF7FD
:1012D000F7FF044B9B68C3F38223034AD35CD840D7
:1012E00008BD00BF003802409440000808B5FFF771
:1012F000E7FF044B9B68C3F34233034AD35CD840F7
:1013000008BD00BF00380240944000082DE9F04BB2
:10131000444B9B6803F00C03082B06D00C2B42D0E7
:10132000042B7CD04048BDE8F08B3E4B5A6802F05D
:101330003F025B6813F4800F12D03A4B5968C1F337
:10134000881100233948A1FB0001FFF77FFB354BD3
:101350005B68C3F3014301335B00B0FBF3F0E2E7EA
:10136000304B5B68C3F388131E4600275C010025E1
:10137000E41A65EB0705A90141EA9461A001001B8D
:1013800061EB0501CB0043EA5073C400A01943EBA5
:1013900007018B0243EA905384022046194600233A
:1013A000FFF754FBD3E71F4B5A6802F03F025B681C
:1013B00013F4800F10D01B4B5968C1F38811002320
:1013C0001A48A1FB0001FFF741FB164B5B68C3F312
:1013D0000273B0FBF3F0A6E7124B5B68C3F388130C
:1013E0001E4600275C010025E41A65EB0705A901EC
:1013F00041EA9461A001001B61EB0501CB0043EAC7
:101400005073C400A01943EB07018B0243EA9053C9
:101410008402204619460023FFF718FBD5E703484E
:1014200081E700BF003802400024F40040787D01CD
:1014300070B582B00446036813F0010F41D0A64B8B
:101440009B6803F00C03042B32D0A34B9B6803F082
:101450000C03082B27D0A04B9B6803F00C030C2B2C
:1014600059D06368B3F5803F5BD0B3F5A02F5ED051
:10147000994B1A6822F480321A601A6822F480228A
:101480001A606368002B5CD0FFF7F8FC0546924BAE
:101490001B6813F4003F14D1FFF7F0FC401B6428D5
:1014A000F5D903209DE18C4B5B6813F4800FD2D0FB
:1014B000894B1B6813F4003F03D06368002B00F0D6
:1014C0008D81236813F0020F67D0834B9B6813F064
:1014D0000C0F4AD0804B9B6803F00C03082B3FD0C5
:1014E0007D4B9B6803F00C030C2B48D0E368002B6A
:1014F00074D07A4B01221A60FFF7C0FC0546764B88
:101500001B6813F0020F60D1FFF7B8FC401B0228E4
:10151000F5D9032065E1704B5B6813F4800FA0D010
:10152000C6E76D4A136843F480331360A9E76A4B3A
:101530001A6842F480221A601A6842F480321A60F3
:101540009FE7FFF79BFC0546634B1B6813F4003FC6
:10155000B7D0FFF793FC401B6428F5D9032040E186
:101560005D4B5B6813F4800FBAD15B4B1B6813F0C3
:10157000020F0AD0E368012B07D0012031E1564B5E
:101580005B6813F4800FB1D1EFE7534A136823F07F
:10159000F803216943EAC1031360236813F0080FBD
:1015A00040D0636963B34E4B01221A60FFF766FCBB
:1015B0000546494B5B6F13F0020F33D1FFF75EFC1A
:1015C000401B0228F5D903200BE1434A136823F09E
:1015D000F803216943EAC1031360DEE73F4B0022B1
:1015E0001A60FFF74BFC05463B4B1B6813F0020FDC
:1015F000D3D0FFF743FC401B0228F5D90320F0E0CD
:10160000374B00221A60FFF739FC0546324B5B6FFF
:1016100013F0020F06D0FFF731FC401B0228F5D96A
:101620000320DEE0236813F0040F79D02A4B1B6CF3
:1016300013F0805F33D100230193274B1A6C42F0E3
:1016400080521A641B6C03F080530193019B0125A7
:10165000244B1B6813F4807F23D0A368012B34D064
:10166000052B41D01C4B1A6F22F001021A671A6F2A
:1016700022F004021A67A368002B3FD0FFF7FEFB9D
:101680000646154B1B6F13F0020F48D1FFF7F6FB10
:10169000801B41F288339842F3D90320A1E0002552
:1016A000D6E7104A136843F480731360FFF7E6FB34
:1016B00006460C4B1B6813F4807FCED1FFF7DEFB90
:1016C000801B0228F5D903208BE0034A136F43F0F7
:1016D00001031367CFE700BF003802400000474214
:1016E000800E474200700040404B1A6F42F00402E7
:1016F0001A671A6F42F001021A67BCE7FFF7BEFBD8
:1017000006463A4B1B6F13F0020F08D0FFF7B6FBEB
:10171000801B41F288339842F3D9032061E0E5B998
:10172000A369002B5CD0314A926802F00C02082AAF
:1017300059D0022B17D02E4B00221A60FFF79EFBC8
:1017400004462A4B1B6813F0007F45D0FFF796FB39
:10175000001B0228F5D9032043E0244A136C23F030
:1017600080531364DCE7224B00221A60FFF786FBEC
:1017700005461E4B1B6813F0007F06D0FFF77EFB6B
:10178000401B0228F5D903202BE0E369226A1343AA
:10179000626A43EA8213A26A5208013A43EA0243A8
:1017A000E26A43EA0263226B43EA02730F4A536020
:1017B0000F4B01221A60FFF761FB04460B4B1B68BD
:1017C00013F0007F06D1FFF759FB001B0228F5D963
:1017D000032006E0002004E0002002E0012000E0F9
:1017E000002002B070BD0120FBE700BF00380240BE
:1017F00060004742F8B505460F4616461C462B6862
:101800009B6837EA03030CBF01230023B34237D0A0
:10181000B4F1FF3FF3D0FFF731FB069BC01AA042A3
:1018200001D2002CEBD12A68536823F0E003536007
:101830006B68B3F5827F0BD0AB6AB3F5005F14D051
:10184000012385F85130002385F85030032018E03B
:10185000AB68B3F5004F02D0B3F5806FECD12A68C6
:10186000136823F040031360E6E72A68136823F443
:10187000005313602A68136843F400531360DFE7D2
:101880000020F8BD30B585B0164C2468164DA5FB78
:101890000434640D4FF47A7505FB04F40394446832
:1018A000B4F5827F0BD0039BC3B1039B013B039331
:1018B00003689B6813F0800FF5D100230FE00B46FF
:1018C0000446009200228021FFF794FF034630B1C6
:1018D000636D43F020036365032300E00023184693
:1018E00005B030BD0C000020819F5E1610B582B09F
:1018F00004464068B0F5827F16D06068B0F5827FFC
:101900002ED1A368B3F5806F1BD000920B46002246
:1019100080212046FFF76EFF034650B3636D43F00E
:1019200020036365032324E0A368B3F5004F02D0CE
:10193000B3F5806FE1D12068036823F040030360B2
:10194000DBE700920B46002201212046FFF752FF01
:10195000034670B1636D43F020036365032308E021
:1019600000920B46002201212046FFF743FF034669
:1019700010B9184602B010BD636D43F020036365D3
:101980000323F6E700283BD010B50446002383620A
:1019900090F85130002B2ED0022384F85130226869
:1019A000136823F0400313606368A2681343E2687E
:1019B00013432269134362691343A26902F400725C
:1019C0001343E2691343226A1343A16A22680B435B
:1019D0001360638B03F00403616A22680B43536056
:1019E0002268D36923F40063D3610020606501237A
:1019F00084F8513010BD80F8503001F073FACBE715
:101A0000012070472DE9F04182B090F85040012C40
:101A100000F0C3801D46174688460446012380F81F
:101A20005030FFF72BFA064694F85130DBB2012B09
:101A300009D00220012384F85130002384F850306B
:101A400002B0BDE8F081B8F1000F00F09880002FDF
:101A500000F09780032384F8513000236365C4F8B5
:101A60003080A786E786A363A387E3876364236444
:101A7000A368B3F5004F1CD023681A6812F0400F1A
:101A800003D11A6842F040021A60E368B3F5006FB0
:101A900015D063680BB1012F49D1226B23681278EE
:101AA0001A73236B01332363E38E013B9BB2E386FE
:101AB0003DE02268136843F480431360DCE7636809
:101AC0000BB1012F15D1226B23681288DA60236BCA
:101AD00002332363E38E013B9BB2E38609E0FFF709
:101AE000CDF9801BA84202D3B5F1FF3F4BD1002DA9
:101AF0004BD0E38E9BB2002B2CD023689A6812F057
:101B0000020FECD0226B1288DA60236B023323635E
:101B1000E38E013B9BB2E386EBE7FFF7AFF9801B57
:101B2000A84202D3B5F1FF3F31D1002D31D0E38E71
:101B30009BB27BB123689A6812F0020FEDD0226B42
:101B400012781A73236B01332363E38E013B9BB23C
:101B5000E386ECE7324629462046FFF793FE08B1BC
:101B600020236365A36833B901932368DA6801927F
:101B70009B680193019B636D6BB900205AE70120BC
:101B800058E7012056E7032054E7032052E70320DB
:101B900050E703204EE701204CE7022050E72DE9F3
:101BA000F04383B0DDF8288090F85040012C00F01D
:101BB0000B811D4617460E460446012380F850301F
:101BC000FFF75CF9814694F85100C0B263680128C0
:101BD00015D0B3F5827F0AD00223012284F8512068
:101BE000002284F85020184603B0BDE8F083A368B3
:101BF000002B40F0DB80042801D00223EDE7002E0B
:101C000000F0D680002F00F0D580002D00F0D480A9
:101C100094F85130DBB2042B02D0052384F8513004
:101C200000236365A763E587A5872663E586A58608
:101C30002364636423681A6812F0400F03D11A68A2
:101C400042F040021A60E368B3F5006F10D0636899
:101C50000BB1012D0AD1226B236812781A73236B02
:101C600001332363E38E013B9BB2E386012569E0E8
:101C700063680BB1012D0AD1226B23681288DA60E8
:101C8000236B02332363E38E013B9BB2E386012582
:101C90001BE023689A6812F0010F0DD0E28F92B218
:101CA00052B1DA68A36B1A80A36B0233A363E38F8C
:101CB000013B9BB2E3870125FFF7E0F8A0EB0900A9
:101CC000404502D3B8F1FF3F78D1E38E9BB21BB9F8
:101CD000E38F9BB2002B52D023689A6812F0020F58
:101CE000D7D0E28E92B2002AD3D0002DD1D0226B71
:101CF0001288DA60236B02332363E38E013B9BB2CD
:101D0000E3860025C5E723689A6812F0010F0DD01D
:101D1000E28F92B252B1DA68A36B1A70A36B0133EF
:101D2000A363E38F013B9BB2E3870125FFF7A6F88E
:101D3000A0EB0900404502D3B8F1FF3F40D1B8F114
:101D4000000F3FD0E38E9BB213B9E38F9BB2B3B1C8
:101D500023689A6812F0020FD5D0E28E92B2002A60
:101D6000D1D0002DCFD0226B12781A73236B0133A0
:101D70002363E38E013B9BB2E3860025C3E74A461B
:101D800041462046FFF77EFD034618B120236365D8
:101D9000012322E7A268002A7FF41FAF0192226884
:101DA000D168019192680192019A16E7022314E723
:101DB000012312E7012310E701230EE703230CE7B9
:101DC00003230AE7032308E702230CE72DE9F04188
:101DD00082B004460F4690461D464368B3F5827FA5
:101DE00019D094F85030012B00F09F80012384F823
:101DF0005030FFF743F8064694F85130DBB2012B20
:101E000015D00220012384F85130002384F850308B
:101E100002B0BDE8F0818368002BE2D1042380F892
:101E20005130009513460A46FFF7B9FEF0E7002F40
:101E30006DD0B8F1000F6CD0042384F8513000232A
:101E40006365A763A4F83C80A4F83E802363A3865F
:101E5000E38623646364A368B3F5004F0BD0236863
:101E60001A6812F0400F03D11A6842F040021A605B
:101E7000E36883B12CE02268136823F48043136085
:101E8000EDE7FEF7FBFF801BA84202D3B5F1FF3F51
:101E900041D1002D41D0E38F9BB2002B2BD0236882
:101EA0009A6812F0010FECD0A26B1B7B1370A36B2E
:101EB0000133A363E38F013B9BB2E387EBE7FEF7BC
:101EC000DDFF801BA84202D3B5F1FF3F27D145B308
:101ED000E38F9BB27BB123689A6812F0010FEED0BA
:101EE000DA68A36B1A80A36B0233A363E38F013B11
:101EF0009BB2E387ECE7324629462046FFF7F6FC23
:101F000008B120236365636D6BB900207AE7012077
:101F100078E7012076E7032074E7032072E70320C7
:101F200070E703206EE701206CE7022070E70000F5
:101F30002DE9F84304460268136923F44053C1684D
:101F40000B43136183680269134342691343C269F7
:101F50001A430168CB6823F4164323F00C031343A0
:101F6000CB600268536923F4407381690B4353616A
:101F7000C369B3F5004F60D00368B84A934200F0DC
:101F8000148102F58062934200F00F81FFF79EF901
:101F900000EB800000EB80006568AD00B0FBF5F55C
:101FA000AF4FA7FB05356D092E01FFF78FF900EB49
:101FB000800000EB80006568AD00B0FBF5F9FFF72D
:101FC00085F900EB800000EB80006568AD00B0FB98
:101FD000F5F5A7FB05356D094FF0640808FB15956D
:101FE0002D013235A7FB05356D0905F0F0053544A7
:101FF000FFF76CF900EB800000EB80006668B6002C
:10200000B0FBF6F6FFF762F900EB800000EB800012
:1020100063689B00B0FBF3F0A7FB0030400908FBAE
:1020200010684FEA081808F13208A7FB0837C7F311
:10203000431723682F449F600DE10368874A93424A
:102040005BD002F58062934257D0FFF73FF900EB77
:10205000800000EB800065686D00B0FBF5F5804FF7
:10206000A7FB05356D092E01FFF730F900EB800065
:1020700000EB800065686D00B0FBF5F9FFF726F90D
:1020800000EB800000EB800065686D00B0FBF5F5AB
:10209000A7FB05356D094FF0640808FB1595ED00A9
:1020A0003235A7FB05356D096D0005F4F87535442B
:1020B000FFF70CF900EB800000EB8000666876000B
:1020C000B0FBF6F6FFF702F900EB800000EB8000B2
:1020D00063685B00B0FBF3F3A7FB03235B0908FB1A
:1020E00013684FEAC80808F13208A7FB0837C7F39E
:1020F000421723682F449F60ADE0FFF7F7F800EB2D
:10210000800000EB800065686D00B0FBF5F5544F72
:10211000A7FB05356D092E01FFF7E8F800EB8000FD
:1021200000EB800065686D00B0FBF5F9FFF7DEF8A5
:1021300000EB800000EB800065686D00B0FBF5F5FA
:10214000A7FB05356D094FF0640808FB1595ED00F8
:102150003235A7FB05356D096D0005F4F87535447A
:10216000FFF7C4F800EB800000EB800066687600A3
:10217000B0FBF6F6FFF7BAF800EB800000EB80004A
:1021800063685B00B0FBF3F3A7FB03235B0908FB69
:1021900013684FEAC80808F13208A7FB0837C7F3ED
:1021A000421723682F449F6055E0FFF79FF800EB2C
:1021B000800000EB80006568AD00B0FBF5F5284FAE
:1021C000A7FB05356D092E01FFF790F800EB8000A5
:1021D00000EB80006568AD00B0FBF5F9FFF786F80D
:1021E00000EB800000EB80006568AD00B0FBF5F50A
:1021F000A7FB05356D094FF0640808FB15952D0107
:102200003235A7FB05356D0905F0F0053544FFF7BC
:102210006DF800EB800000EB80006668B600B0FB54
:10222000F6F6FFF763F800EB800000EB80006368D0
:102230009B00B0FBF3F0A7FB0030400908FB1068DF
:102240004FEA081808F13208A7FB0837C7F343170D
:1022500023682F449F60BDE8F88300BF0010014051
:102260001F85EB512DE9F04105460F46164698466D
:10227000069C2B681B6837EA03030CBF012300236D
:10228000B3421DD1B4F1FF3FF3D02CB1FEF7F6FD00
:10229000A0EB0800A042ECD92A68D36823F4D073DD
:1022A000D3602A68536923F001035361202385F822
:1022B000393085F83A30002385F83830032000E0C3
:1022C0000020BDE8F08158B310B5044690F83930CD
:1022D0000BB3242384F839302268D36823F40053E5
:1022E000D3602046FFF724FE2268136923F490434D
:1022F00013612268536923F02A0353612268D3686B
:1023000043F40053D3600020E063202384F8393085
:1023100084F83A3010BD80F8383000F01BFED8E762
:10232000012070472DE9F04182B01E4690F8393007
:10233000DBB2202B55D104460D469046002955D0DE
:10234000002A55D090F83830012B53D0012380F863
:1023500038300023C363212380F83930FEF78EFD27
:102360000746A4F82480A4F8268010E000963B4697
:10237000002280212046FFF775FF00283CD12B88E2
:102380002268C3F3080353602369C3B90235E38CA1
:102390009BB2B3B1E38C013B9BB2E384A368B3F57A
:1023A000805FE3D000963B46002280212046FFF765
:1023B00059FF18BB2A7823685A600135E7E70135D1
:1023C000E5E700963B46002240212046FFF74AFF02
:1023D0000346A8B9202284F83920002284F8382046
:1023E00000E00223184602B0BDE8F0810123F9E7BE
:1023F0000123F7E70223F5E70323F3E70323F1E7DC
:102400000323EFE70E4BDA6822F08072DA60DA68B5
:1024100042F08072DA600B4B1A6822F001021A60F7
:102420001A6842F001021A6000225A6000BF00BF21
:1024300000BF5B680BB9012070471046704700BFB2
:10244000F0ED00E0001000E070B586B000240194CB
:1024500002940394049405940094164B1A6B42F072
:1024600001021A631B6B03F001030093009B124DE2
:10247000224610212846FEF763FE012601960F4BE7
:102480000293039401A92846FEF77CFD10230193D3
:1024900002960394049401A92846FEF773FD224690
:1024A00021460620FEF716FD0620FEF747FD06B082
:1024B00070BD00BF00380240000002400000211043
:1024C00008B50C480C4B03604FF482734360002343
:1024D0008360C360036143614FF40072826118221C
:1024E000C2610362436283620A23C362FFF74AFA4E
:1024F00008BD00BF180100200030014008B50848A1
:10250000084B03604FF41653436000238360C3609D
:1025100003610C2242618361C361FFF7D4FE08BDF1
:10252000D80000200010014030B595B034220021C1
:1025300007A800F00FFE002402940394049405946D
:10254000069400941C4B1A6C42F080521A641B6C67
:1025500003F080530093009B0194184A136823F4FE
:10256000404343F480431360136803F440430193F2
:10257000019B0225079501230A9310230B930D95C8
:102580000E9408230F9378231093119512951395A9
:1025900007A8FEF74DFF0F230293039504944FF411
:1025A000A05305934FF480530693052102A8FEF72C
:1025B000DBFD15B030BD00BF0038024000700040A8
:1025C000B0B584B002AFFEF737FCFFF7ADFFFFF701
:1025D0003BFFFFF775FFFFF791FF2D4800F040FC30
:1025E0002C4800F0BFFD01210191102300932A4BDC
:1025F00002222A4800F074FA00F0ACFAF52000F04C
:102600003FFA0146264800F0ADFD9FED260A00F096
:102610004BF99FED250A00F027F94FF6FF73FB8079
:10262000ADF5803D02AD00F0A3FA00240FE0F9887B
:102630001E4800F097FD03E0F9881D4800F092FD68
:102640003A2000F083F800F093FA0134E4B200F08D
:1026500035F80028FBD02146164800F083FD07F12D
:1026600008014FF6FF7321F8023D3B1D01937B1DCE
:10267000009310230022284600F01CFB0128D6D02E
:102680000028D9D1F9880C4800F06CFDD8E700BFCC
:10269000D80000209C4000080000024018010020E3
:1026A000AC40000871FDD843000048C3E440000876
:1026B00000410008D0400008F0400008014B1878A5
:1026C000704700BF9000002010B40124234604E0AE
:1026D0005B009BB201339BB20134A242F8DC425C46
:1026E0000844407842EA002018405DF8044B7047E7
:1026F00070B504460D4616460022114B1988114B41
:102700001868FEF71DFD4FF6FF73012221460E48A3
:102710000068FFF777F9044648B945B14FF6FF73F3
:102720003246294608480068FFF76CF90446012242
:10273000034B1988034B1868FEF702FD204670BD55
:102740007A010020700100207401002000B583B0E0
:1027500002AB03F8010D002211461846FFF7C8FF2F
:1027600003B05DF804FB000038B5FFF74BFE002214
:10277000194B1988194B1868FEF7E2FC0A24184B0C
:102780005D68FEF79DFD174BA3FB0030800C04FB3A
:1027900000F4134B5B685B1BA342FAD301220E4B80
:1027A00019880E4B1868FEF7CBFC28240C4B5D688B
:1027B000FEF786FD0B4BA3FB0030800C04FB00F4FE
:1027C000074B5B685B1BA342FAD33020FFF7BEFFC9
:1027D0000120FEF759FB38BD7A010020700100206E
:1027E000001000E083DE1B4300B583B08DF80700C6
:1027F00002AB03F8021D012219460DF10700FFF795
:1028000077FF03B05DF804FB08B501460A20FFF727
:10281000EBFF08BD08B510F11D0F14DB10F1130F0D
:1028200016DB10F10E0F15DB10F1090F14DB002879
:1028300014DD052814DD072814DD0A2801DC072132
:1028400002E0C02100E000212220FFF7CDFF08BDFB
:102850000121F9E70221F7E70321F5E70421F3E776
:102860000521F1E70621EFE710B582B0DFED0B7A25
:1028700020EE270A9FED0A7AC0EE077AFDEEE77A8E
:10288000CDED017A9DF90440E1B20C20FFF7ACFFD9
:1028900007EE904AB8EEE70A02B010BD000080468D
:1028A0000020CB460000000010B5DFED217A60EE7D
:1028B000277A17EE900AFDF70FFE00221D4BFDF759
:1028C00063FE19A3D3E90023FDF788FF00221A4B0A
:1028D000FDF784FFFEF76AF807EE900AFCEEE77A50
:1028E00017EE900A20F07F44E1B20F20FFF77CFF43
:1028F000C4F307210E20FFF777FF210C0D20FFF70F
:1029000073FF07EE904AF8EE677A9FED0C7A67EE58
:10291000877A9FED0B7A87EE870ADFED0A7A20EE41
:10292000270A10BDAFF30080000000000064D9400A
:10293000002474490000F04000408F400020CB4646
:1029400000007A440000803700B583B08DF807009E
:10295000012A04D9C3B243F040038DF807300DF1CA
:102960000700FFF7C5FE03B05DF804FB08B50138AA
:1029700005280ED8DFE800F0030D0507090B08490C
:1029800008E0084906E0084904E0084902E008496F
:1029900000E008492F224020FFF7D6FF08BD00BF06
:1029A000443F0008A43F0008D43F0008044000084A
:1029B00034400008743F000870B50138032812D86D
:1029C000DFE800F00216070C144C89251D260C21A7
:1029D00012E0134C6A25652621210DE0114C3B25A0
:1029E0003126232108E00E4C6A256526212103E0CB
:1029F0000D4C7125B02610210D20FFF7F5FE314654
:102A00000E20FFF7F1FE29460F20FFF7EDFE08220A
:102A100021467E20FFF798FF70BD00BF644000088C
:102A2000744000087C4000086C4000082DE9F84321
:102A300081460F4690460F4D0F4C00222988206892
:102A4000FEF77EFB0D4E4FF6FF73012249463068BC
:102A5000FEF7D8FF4FF6FF73424639463068FFF75E
:102A6000B5F90646012229882068FEF769FB304641
:102A7000BDE8F8837A010020700100207401002075
:102A800000B585B060F07F008DF8070001220DF1E0
:102A90000F010DF10700FFF7C9FF9DF80F0005B00A
:102AA0005DF804FB38B50024012501E00134E4B2EF
:102AB000092C06D8F120FFF7E3FF1428F6D00025F3
:102AC000F4E725B9044800F04DFB284638BD03481B
:102AD00000F048FBF9E700BF204100081041000862
:102AE00038B50D461446174A1060174A1360BDF8F2
:102AF0001020164B1A80BDF81420154B1A80FFF7D2
:102B000033FEFFF7CFFF034608B9184638BD3B2018
:102B1000FFF71CFE0120FEF7B7F93A20FFF716FE7B
:102B20000120FEF7B1F92846FFF720FF2046FFF706
:102B300043FF0020FFF768FE6FF01D00FFF76AFEFD
:102B40000123E2E774010020700100207A010020D7
:102B50007801002008B53620FFF7F8FDFF2004E0DB
:102B6000F520FFF78DFF00F01F000128F8D108BD08
:102B700008B546210220FFF737FE3A20FFF7E6FDB1
:102B80003420FFF7E3FDFF2002E0F520FFF778FF98
:102B90000D28FAD1014B00221A7008BD90000020C8
:102BA000F8B507460D46FFF76BFF0446FEF766F9DA
:102BB0000646AC420FD23846FFF762FF04460A20B1
:102BC000FEF762F9FEF75AF9801B044B1B68984226
:102BD000EFD9002000E00120F8BD00BF0800002070
:102BE00000B583B08DF80700012A0BD9C3B263F09A
:102BF0003F038DF807300DF10700FFF717FF03B013
:102C00005DF804FB9DF8073063F07F038DF8073013
:102C1000F1E700002DE9F84380460E46FEF72EF955
:102C20000746734206F01F0503F01F0358BF5D42BD
:102C30005FFA85F900241D4B1C7006E0FEF71EF9B3
:102C4000C01B1B4B1B6898422BD8EBB2F31AA34254
:102C500011DD164B1B78002BF0D0144B00221A709C
:102C6000202208EB0401BF20FFF7BAFF2034FEF753
:102C700005F90746E2E7B9F1000F01D1012311E0A0
:102C80004946FB20FFF78CFF034658B1074B002253
:102C90001A704A4608EB0401BF20FFF7A1FF012389
:102CA00000E000231846BDE8F88300BF9000002034
:102CB000080000202DE9F04707460D4691469A4648
:102CC0000E8800230B805C4A137040210220FFF71E
:102CD0008BFD0820FFF7D4FE00F0FC0848F002014D
:102CE0000820FFF781FD09F10204E4B22146FB2030
:102CF000FFF756FF002800F0938022463946BF2098
:102D0000FFF76EFF524649463846FFF7DDFC09F1F2
:102D100002022B881A442A80864200D30646314696
:102D2000464800F01FFA2C88341BA4B2F1B20620EA
:102D3000FFF75AFDFF2C36D8202C50D941460820E9
:102D4000FFF752FD288821463844FFF763FF00282B
:102D50006CD02B881C442C80F320FFF791FE064694
:102D600000F07F02089B1A70F420FFF789FE099B90
:102D70001870FEF783F80546FF24012C48D0F52093
:102D8000FFF77EFE04466420FEF77EF8FEF776F835
:102D9000401B2B4B1B689842EFD9112C33D0FFF707
:102DA000D9FE002038E0A109288889013844FFF7BE
:102DB00031FF002837D024F03F042B881C442C809E
:102DC00041460820FFF710FD2888341AA4B2214696
:102DD0003844FFF71FFF2B881C442C80BCE741467A
:102DE0000820FFF701FDE6B23146FB20FFF7D8FED1
:102DF000F8B1298832463944BF20FFF7F1FE2B880D
:102E00001C442C80A8E73A20FFF7A0FC002003E038
:102E100016F0800F02D10020BDE8F0870120FBE70B
:102E20004FF0FF30F8E74FF0FF30F5E74FF0FF309D
:102E3000F2E74FF0FF30EFE7900000204841000834
:102E400008000020044B1B88834200D07047034BCE
:102E500001221A70FAE700BF7801002090000020DC
:102E6000014B1860704700BF7C01002010B582B094
:102E7000044602A901F8040D0A2301220348006850
:102E8000FFF750FA204602B010BD00BF7C010020C1
:102E900070B51646002405E04D1C0878FFF7E6FFE4
:102EA00001342946B442F7DB304670BD82B00021C0
:102EB00000910B4B5A6C42F480425A645A6C02F4F3
:102EC00080420092009A01911A6C42F080521A647A
:102ED0001B6C03F080530193019B02B0704700BF4D
:102EE0000038024000B589B0002303930493059392
:102EF000069307930268154B9A4202D009B05DF819
:102F000004FB0021019103F584335A6C42F4805292
:102F10005A645A6C02F480520192019A02911A6B1F
:102F200042F001021A631B6B03F001030293029B40
:102F3000E0230393022304930323069305230793BB
:102F400003A90348FEF71EF8D8E700BF0030014090
:102F50000000024000B589B0002303930493059359
:102F600006930793026803F1804303F588339A427E
:102F700002D009B05DF804FB0021019103F5943300
:102F80005A6C42F010025A645A6C02F0100201921C
:102F9000019A02911A6B42F001021A631B6B03F053
:102FA00001030293029B4FF4C06303930223049333
:102FB00001230593032306930723079303A90248DC
:102FC000FDF7E0FFD5E700BF000002407047FEE7D5
:102FD000FEE7FEE7FEE770477047704708B5FDF76C
:102FE00041FF08BD08B50120FEF7B0F808BD70B577
:102FF0000D461646002404E0AFF30080287001342B
:103000000135B442F8DB304670BD000008B5034618
:103010000B4A126842B10A4A106803446A46934256
:1030200006D8074A136008BD054A06491160F2E751
:1030300000F066F80C2303604FF0FF30F3E700BFA9
:10304000C4000020880100204FF0FF3070474FF48B
:1030500000534B60002070470120704700207047EC
:103060000F49D1F8883043F47003C1F888300D4B14
:103070001A6842F001021A60002098601A6822F073
:10308000847222F480321A60074A5A601A6822F465
:1030900080221A60D8604FF000638B60704700BFD9
:1030A00000ED00E00038024010300024DFF834D09A
:1030B000002103E00C4B5B58435004310B480C4B90
:1030C00042189A42F6D30B4A02E0002342F8043B2E
:1030D000094B9A42F9D3FFF7C3FF00F017F8FFF747
:1030E0006FFA704700000220004200080000002034
:1030F000740000207400002084010020FEE700001E
:10310000014B1868704700BF1000002070B50D4ECD
:103110000D4CA41BA4100025A54209D10B4E0C4C4C
:1031200000F004FFA41BA4100025A54205D170BD2A
:1031300056F8253098470135EEE756F82530984780
:103140000135F2E7F8410008F8410008F8410008AD
:10315000FC41000802440346934200D1704703F843
:10316000011BF9E70FB40A4B13B51C6824B1A3691E
:1031700013B9204600F04EF805AB049AA1680193FC
:10318000204600F055F902B0BDE8104004B0704789
:1031900010000020002310B50446C0E9003383600E
:1031A00081814366C281C0E90433836119460822E4
:1031B0005C30FFF7CFFF054B6362054BA362054B05
:1031C000E362054B2462236310BD00BF8D39000804
:1031D000AF390008E73900080B3A0008014900F050
:1031E00085B800BFE53C000870B54A1E6825554308
:1031F0000E4605F1740100F097F8044640B1002135
:10320000C0E900160C30A06005F16802FFF7A2FFCC
:10321000204670BD836910B5044633BBC0E9123344
:103220000365124B124A1B688262984204BF012355
:10323000836100F01FF86060204600F01BF8A0607A
:10324000204600F017F80022E06004216068FFF7D4
:10325000A1FF01220921A068FFF79CFF0222122191
:10326000E068FFF797FF0123A36110BD58410008F4
:10327000DD310008F8B51B4B1E68B369074613B96A
:103280003046FFF7C7FF4836D6E90134013B03D586
:10329000336833B13668F7E7B4F90C506DB1683470
:1032A000F4E704213846FFF79FFF30600028F1D192
:1032B0000C233B6004462046F8BD0B4B6566C4E911
:1032C0000055A560C4E90335C4E90555082229461F
:1032D00004F15C00FFF73EFFC4E90D55C4E9125547
:1032E000E9E700BF584100080100FFFF2DE9F8435E
:1032F0008046894600F14804002614B93046BDE8EE
:10330000F883D4E90175013F01D52468F5E7AB895D
:10331000012B07D9B5F90E30013303D029464046B9
:10332000C84706436835EEE770B5CD1C25F00305A8
:1033300008350C2D38BF0C25002D064601DBA942AF
:1033400003D90C233360002070BD00F06BFD214ACF
:103350001468214691B9204C23681BB9304600F00F
:1033600005FB20602946304600F000FB431C24D1B9
:103370000C233360304600F056FDE4E70B685B1B1E
:1033800018D40B2B0FD90B60CD50CC18304600F061
:103390004AFD04F10B00231D20F00700C31AD3D00F
:1033A0005A42E250D0E78C424B6816BF636013600C
:1033B0000C46EBE70C464968CCE7C41C24F0030438
:1033C000A04205D0211A304600F0D0FA0130CFD00B
:1033D0002560DBE7CC000020D00000209368013B93
:1033E000002B10B4936008DA9469A34201DB0A2928
:1033F00003D15DF8044B00F00DBB1368581C10603E
:10340000197008465DF8044B7047F8B506460F463C
:103410001446D518AC4201D1002007E03A4614F812
:10342000011B3046FFF7DAFF431CF3D1F8BD000063
:103430002DE9F04F0C469DB017461D46064618B1C3
:1034400083690BB9FFF7E6FE7C4B9C4258D1746848
:10345000A38918075ED52369002B5BD0002309934D
:1034600020238DF8293030238DF82A3003954FF032
:10347000010BB846454615F8013B0BB1252B54D13D
:10348000B8EB070A0BD053463A4621463046FFF7C1
:10349000BCFF013000F0C280099B5344099398F8A7
:1034A0000030002B00F0BA8000234FF0FF32CDE94E
:1034B0000523049307938DF853301A93A8460522E9
:1034C00018F8011B5E48FDF743FC049B78BBD90646
:1034D00044BF20228DF853201A0744BF2B228DF8B9
:1034E00053202A782A2A2AD0079AA84600200A259B
:1034F000414611F8013B303B092B69D960B324E008
:10350000504B9C4201D1B468A2E74F4B9C4208BF8C
:10351000F4689DE72146304600F0E0FA00289DD08F
:103520004FF0FF301DB0BDE8F08FA846A2E7444A37
:10353000801A0BFA00F0184304904546BEE7039A40
:10354000111D12680391002A01DB079204E0524228
:1035500043F002030792049398F800302E2B0ED10B
:1035600098F801302A2B38D1039B1A1D1B6803924F
:10357000002BB8BF4FF0FF3308F102080593334D1D
:1035800098F8001003222846FDF7E2FB40B14023E3
:10359000401B03FA00F0049B034308F10108049365
:1035A00098F800102A488DF82810062208F1010723
:1035B000FDF7CEFB002837D0264B1BBB039B073300
:1035C00023F0070308330393099B4B44099350E707
:1035D00005FB0232012088468AE7002308F1010832
:1035E000059319460A25404610F8012B303A092A5E
:1035F00003D9002BC3D00591C1E705FB01210123AD
:103600008046F0E703AB00932246134B04A93046F3
:10361000AFF30080B0F1FF3F8146D5D1A3895B06AF
:103620003FF57EAF09987DE703AB009322460A4B36
:1036300004A9304600F088F8ECE700BF7C410008A0
:10364000BC4100089C4100085C410008C2410008E0
:10365000C6410008000000000B3400082DE9F047C7
:1036600091461F468A680B69DDF820809342B8BFF7
:103670001346C9F8003091F8432006460C4612B1B3
:103680000133C9F800302368990642BFD9F80030E9
:103690000233C9F80030256815F0060507D104F19A
:1036A000190AE368D9F800209B1AAB4228DC94F889
:1036B00043302268003318BF012392062DD404F151
:1036C000430239463046C047013020D02368E568C0
:1036D000D9F8002003F00603042B08BFAD1AA36835
:1036E00022690CBF25EAE57500259342C4BF9B1AE9
:1036F000ED184FF000091A344D451AD1002008E0AA
:103700000123524639463046C047013003D14FF0BD
:10371000FF30BDE8F0870135C3E7E1185A1C3020BF
:1037200081F84300224494F8451082F84310023394
:10373000C5E70123224639463046C0470130E6D06E
:1037400009F10109D8E700002DE9F04301F1430C2C
:103750000C46097E85B06E291746064698460C9A97
:1037600000F0B38022D8632936D00AD8002900F0AF
:10377000B980582900F0838004F1420584F8421092
:1037800032E0642901D06929F6D120681368050662
:1037900003F104012AD51B681160002B03DA2D22E6
:1037A0005B4284F843206F480A2239E0732900F015
:1037B0009D8008D86F2920D07029DDD1236843F07F
:1037C0002003236003E0752917D07829D4D178230A
:1037D00084F84530644855E01368191D1B68116072
:1037E00004F1420584F8423001238CE01B6811602B
:1037F00010F0400F18BF1BB2CFE713682568181DE3
:103800001060280601D51B6802E06806FBD51B88FE
:1038100054486F2914BF0A220822002184F843105B
:103820006568A560002DC0F29580216821F0040133
:103830002160002B3DD1002D40F08E806546082A86
:103840000BD12368DB0708D5236962689A42DEBF83
:10385000302305F8013C05F1FF35ACEB050323618E
:10386000CDF800803B4603AA21463046FFF7F6FE1E
:1038700001304DD14FF0FF3005B0BDE8F08339483D
:1038800084F84510136821681D1D1B6815600A0621
:103890000BD5CA0744BF41F0200121601BB9226843
:1038A00022F0200222601022B7E74D0648BF9BB2EB
:1038B000EFE76546B3FBF2F102FB1133C35C05F899
:1038C000013D0B460029F5D1B9E713682568616908
:1038D000181D106028061B6801D5196002E06A06F1
:1038E000FBD51980002323616546B9E71368191DCC
:1038F00011601D68626800212846FDF729FA08B1A9
:10390000401B606063682361002384F84330A7E7AD
:1039100023692A4639463046C0470130AAD0236879
:103920009B0713D4E068039B9842B8BF1846A3E7EF
:1039300001234A4639463046C04701309AD0013506
:10394000E368039A9B1AAB42F2DCEBE7002504F133
:103950001909F5E7002BACD1037884F8423004F163
:1039600042056CE7CD410008DE41000838B5064C41
:103970000023054608462360FFF748FB431C02D19D
:10398000236803B12B6038BD8001002010B50C46C0
:10399000B1F90E1000F096FA0028ABBF636DA38951
:1039A0001B1823F48053ACBF6365A38110BD2DE9C0
:1039B000F0411F468B89DB0505460C46164605D5AA
:1039C00002230022B1F90E1000F0B6F9A389B4F970
:1039D0000E1023F48053A38132463B462846BDE8AF
:1039E000F04100F069B810B50C46B1F90E1000F0C6
:1039F000A3F9431CA38915BF606523F4805343F4E6
:103A00008053A38118BFA38110BDB1F90E1000F03F
:103A1000D3B80000F8B50E461446054618B18369C0
:103A20000BB9FFF7F7FB214B9C422AD16C68A369C5
:103A3000A360A3891A072ED5236963B3236920687D
:103A4000C01A6369F6B28342374604DC2146284631
:103A500000F048F928BBA368013BA36023685A1C07
:103A600022601E7063690130834204D0A389DB07A2
:103A700019D50A2E17D12146284600F033F990B106
:103A80000FE00B4B9C4201D1AC68D0E7094B9C4244
:103A900008BFEC68CBE72146284600F01FF8002855
:103AA000CCD04FF0FF373846F8BD00BF7C4100084E
:103AB0009C4100085C41000838B5074C05460846A3
:103AC0001146002222601A46FFF7E2F9431C02D198
:103AD000236803B12B6038BD80010020324B70B5E4
:103AE0001D6806460C4625B1AB6913B92846FFF799
:103AF00091FB2E4B9C420FD16C68B4F90C309AB2FA
:103B000015072CD4D00611D40922326043F04003AB
:103B1000A3814FF0FF303EE0254B9C4201D1AC68C1
:103B2000EBE7244B9C4208BFEC68E6E7510712D54F
:103B3000616B41B104F14403994202D0304600F078
:103B400073F900236363A38923F02403A381002373
:103B5000636023692360A38943F00803A381236979
:103B60004BB9A38903F42073B3F5007F03D021463A
:103B7000304600F017F9A28912F001030CD000239F
:103B8000A36063695B42A361236953B9B4F90C3044
:103B900013F08000BAD170BD920758BF6369A3606B
:103BA000F2E70020F7E700BF100000207C4100088A
:103BB0009C4100085C41000838B5064C00230546CE
:103BC00008462360FFF740FA431C02D1236803B183
:103BD0002B6038BD800100208A892DE9F04105461F
:103BE00010070C4658D44B68002B05DC0B6C002BDF
:103BF00002DC0020BDE8F081E66A002EF9D0002347
:103C000012F480522F68216A2B6032D0606DA38934
:103C10005A0705D56368C01A636B0BB1236CC01AD1
:103C200000230246E66A216A2846B047431CA3895E
:103C300006D129681D2948D8294ACA40D60744D543
:103C400000226260D9042269226004D5421C01D19D
:103C50002B6803B96065616B2F600029C9D004F13E
:103C60004403994202D0284600F0DEF80020606349
:103C7000C0E701232846B047411CC8D12B68002B60
:103C8000C5D01D2B01D0162B01D12F60B1E7A38920
:103C900043F04003A381ADE70F69002FA9D093073C
:103CA0000E6808BF4B690F6018BF0023A6EB07081A
:103CB0008B60B8F1000F9CDD43463A46216AA66A44
:103CC0002846B047002806DCA38943F04003A381BF
:103CD0004FF0FF308EE70744A8EB0008E9E700BF8C
:103CE0000100402038B50B6905460C46DBB118B120
:103CF00083690BB9FFF78EFA0C4B9C4209D16C68B3
:103D0000B4F90C307BB121462846BDE83840FFF7B6
:103D100063BF074B9C4201D1AC68F1E7054B9C4265
:103D200008BFEC68ECE7002038BD00BF7C4100080C
:103D30009C4100085C41000838B5074C0546084620
:103D40001146002222601A46FFF788F9431C02D16F
:103D5000236803B12B6038BD8001002070B50E468A
:103D6000B1F90E10002996B014461D4607DA00235B
:103D70002B60B3891A0610D44FF480630EE06A46B4
:103D800000F0B2F80028F2DB019A02F47042A2F5CA
:103D900000535A425A412A60EEE740230020236034
:103DA00016B070BD8B8973B59D0706460C4607D5C6
:103DB00004F14703236023610123636102B070BDF6
:103DC00001AB6A46FFF7CAFF009905463046FFF788
:103DD000ABFA48B9B4F90C309A05EFD423F00303D9
:103DE00043F00203A381E3E70D4BB362A389206094
:103DF00043F08003A381009B6361019B20615BB161
:103E0000B4F90E10304600F081F828B1A38923F0F0
:103E1000030343F00103A381A3891D43A581CDE7DB
:103E2000DD3100087047704738B50546002945D098
:103E300051F8043C0C1F002BB8BFE418FFF7F2FF49
:103E40001F4A1368104633B9636014602846BDE802
:103E50003840FFF7E8BFA3420CD9216862189342AB
:103E600004BF1A685B68636004BF52182260046074
:103E7000ECE713465A680AB1A242FAD919685818F1
:103E8000A0420BD120680144581882421960DDD14C
:103E9000106852685A6001441960D7E702D90C23B0
:103EA0002B60D3E7206821188A4204BF116852684A
:103EB000626004BF091821605C60C7E738BD00BFBD
:103EC000CC00002038B5074C0546084611460022B4
:103ED00022601A46FFF78BF8431C02D1236803B116
:103EE0002B6038BD8001002038B5074C0023054603
:103EF000084611462360FFF7AAF8431C02D1236845
:103F000003B12B6038BD00BF8001002038B5064CDE
:103F10000023054608462360FFF79EF8431C02D1A4
:103F2000236803B12B6038BD80010020F8B500BFC5
:103F3000F8BC08BC9E467047F8B500BFF8BC08BC8A
:043F40009E467047E2
:103F4400072E800757433ED845FF00080021656AC5
:103F5400F58313C0F815070018166C034091022668
:103F6400095617A90A00114100597F3F813F0B00F0
:103F7400072E800757433EDC45FF00060021656A93
:103F8400CA8313A0F834070C18166C434091022618
:103F9400095617A90A00114100597F3F813F0B00C0
:103FA400072E800757433EDC45FF00080021656A61
:103FB4005BF813A0F847070C181D1CC700B20226B3
:103FC40009B617EA0A00114100597F3F813F0B00EF
:103FD400072E800757433EDC45FF000B0021656A2E
:103FE4002D3B73A0F800070C181D1CC700B2022655
:103FF40009B617EA0A00114100597F3F813F0B00BF
:10400400072E800757433EDC45FF000C0021656AFC
:104014000E3B73A0F800070C181D1CC740B2022603
:1040240009B617EA0A00194100597F3F813F0B0086
:10403400022E06485743FFDC050000060021656A8E
:1040440087833B22F815073018146C070092876B9E
:10405400FB5617E92A001F4100597F3F81350900AB
:10406400171D26695186CCC36C1C063A5185C8C0FD
:1040740003171D265086CDC00B1B6D675085C9C123
:104084000000000000000000010203040607080904
:1040940000000000010203042323232323232323FA
:1040A400232323340A0D000072726573756C742027
:1040B4002523303278202853686F756C642062653C
:1040C4002030783031290A0D000000005041434B64
:1040D400455420256420464F554E440A0D000000E7
:1040E400256420435243204F4B0A0D00256420428F
:1040F4004144204352430A0D00000000256420542B
:10410400494D454F55540A0D0000000052462063A6
:104114006865636B3A204F4B0A0D000052462063DA
:104124006865636B3A204E6F206C75636B203A2888
:104134000A0D00004652414D452053454E44454426
:104144000A0D00004652414D45204C454E3A20256B
:10415400640A0D00140000200000000000000000AC
:10416400000000000000000000000000000000004B
:10417400000000000000000000000000000000003B
:10418400000000000000000000000000000000002B
:10419400000000000000000000000000000000001B
:1041A400000000000000000000000000000000000B
:1041B4000000000000000000232D302B2000686C5C
:1041C4004C00656667454647003031323334353636
:1041D400373839414243444546003031323334356F
:0C41E4003637383961626364656600009C
:0841F0008CC8FF7F01000000F4
:0441F800F5010008C5
:0441FC00D1010008E5
:104200000100000010000000FF0600000024F40080
:1042100014000020000000007C4100089C410008C0
:104220005C410008000000000000000000000000E9
:10423000000000000000000000000000000000007E
:10424000000000000000000000000000000000006E
:10425000000000000000000000000000000000005E
:10426000000000000000000000000000000000004E
:04427000000000004A
:04000005080030AD12
:00000001FF
